{
  "contractName": "NaraMalsamiTokenTrade",
  "abi": [
    {
      "constant": false,
      "inputs": [],
      "name": "renounceOwnership",
      "outputs": [],
      "payable": false,
      "stateMutability": "nonpayable",
      "type": "function"
    },
    {
      "constant": true,
      "inputs": [],
      "name": "owner",
      "outputs": [
        {
          "name": "",
          "type": "address"
        }
      ],
      "payable": false,
      "stateMutability": "view",
      "type": "function"
    },
    {
      "constant": true,
      "inputs": [],
      "name": "isOwner",
      "outputs": [
        {
          "name": "",
          "type": "bool"
        }
      ],
      "payable": false,
      "stateMutability": "view",
      "type": "function"
    },
    {
      "constant": false,
      "inputs": [
        {
          "name": "newOwner",
          "type": "address"
        }
      ],
      "name": "transferOwnership",
      "outputs": [],
      "payable": false,
      "stateMutability": "nonpayable",
      "type": "function"
    },
    {
      "inputs": [
        {
          "name": "token",
          "type": "address"
        },
        {
          "name": "wallet",
          "type": "address"
        },
        {
          "name": "cap",
          "type": "uint256"
        },
        {
          "name": "dataGoal",
          "type": "uint256"
        },
        {
          "name": "verifierNum",
          "type": "uint256"
        }
      ],
      "payable": false,
      "stateMutability": "nonpayable",
      "type": "constructor"
    },
    {
      "payable": false,
      "stateMutability": "nonpayable",
      "type": "fallback"
    },
    {
      "anonymous": false,
      "inputs": [
        {
          "indexed": true,
          "name": "beneficiary",
          "type": "address"
        },
        {
          "indexed": false,
          "name": "tokenAmount",
          "type": "uint256"
        }
      ],
      "name": "tokensReceived",
      "type": "event"
    },
    {
      "anonymous": false,
      "inputs": [
        {
          "indexed": false,
          "name": "numOfData",
          "type": "uint256"
        },
        {
          "indexed": false,
          "name": "dataRaised",
          "type": "uint256"
        },
        {
          "indexed": false,
          "name": "dataGoal",
          "type": "uint256"
        },
        {
          "indexed": false,
          "name": "seller",
          "type": "address"
        }
      ],
      "name": "fileEmitted",
      "type": "event"
    },
    {
      "anonymous": false,
      "inputs": [
        {
          "indexed": true,
          "name": "previousOwner",
          "type": "address"
        },
        {
          "indexed": true,
          "name": "newOwner",
          "type": "address"
        }
      ],
      "name": "OwnershipTransferred",
      "type": "event"
    },
    {
      "constant": true,
      "inputs": [],
      "name": "token",
      "outputs": [
        {
          "name": "",
          "type": "address"
        }
      ],
      "payable": false,
      "stateMutability": "view",
      "type": "function"
    },
    {
      "constant": true,
      "inputs": [],
      "name": "cap",
      "outputs": [
        {
          "name": "",
          "type": "uint256"
        }
      ],
      "payable": false,
      "stateMutability": "view",
      "type": "function"
    },
    {
      "constant": true,
      "inputs": [],
      "name": "weiPerData",
      "outputs": [
        {
          "name": "",
          "type": "uint256"
        }
      ],
      "payable": false,
      "stateMutability": "view",
      "type": "function"
    },
    {
      "constant": true,
      "inputs": [],
      "name": "dataGoal",
      "outputs": [
        {
          "name": "",
          "type": "uint256"
        }
      ],
      "payable": false,
      "stateMutability": "view",
      "type": "function"
    },
    {
      "constant": true,
      "inputs": [],
      "name": "dataRaised",
      "outputs": [
        {
          "name": "",
          "type": "uint256"
        }
      ],
      "payable": false,
      "stateMutability": "view",
      "type": "function"
    },
    {
      "constant": true,
      "inputs": [],
      "name": "dataBlockCounter",
      "outputs": [
        {
          "name": "",
          "type": "uint256"
        }
      ],
      "payable": false,
      "stateMutability": "view",
      "type": "function"
    },
    {
      "constant": true,
      "inputs": [],
      "name": "tokenLeft",
      "outputs": [
        {
          "name": "",
          "type": "uint256"
        }
      ],
      "payable": false,
      "stateMutability": "view",
      "type": "function"
    },
    {
      "constant": true,
      "inputs": [],
      "name": "refundTokenAmount",
      "outputs": [
        {
          "name": "",
          "type": "uint256"
        }
      ],
      "payable": false,
      "stateMutability": "view",
      "type": "function"
    },
    {
      "constant": true,
      "inputs": [],
      "name": "dataStatus",
      "outputs": [
        {
          "name": "",
          "type": "uint256"
        },
        {
          "name": "",
          "type": "uint256"
        },
        {
          "name": "",
          "type": "uint256"
        },
        {
          "name": "",
          "type": "uint256"
        },
        {
          "name": "",
          "type": "uint256"
        }
      ],
      "payable": false,
      "stateMutability": "view",
      "type": "function"
    },
    {
      "constant": true,
      "inputs": [],
      "name": "transactionStatus",
      "outputs": [
        {
          "name": "",
          "type": "address"
        },
        {
          "name": "",
          "type": "uint256"
        }
      ],
      "payable": false,
      "stateMutability": "view",
      "type": "function"
    },
    {
      "constant": true,
      "inputs": [
        {
          "name": "serverHash",
          "type": "string"
        }
      ],
      "name": "getData",
      "outputs": [
        {
          "name": "",
          "type": "string"
        },
        {
          "name": "",
          "type": "uint256"
        },
        {
          "name": "",
          "type": "uint256"
        },
        {
          "name": "",
          "type": "address"
        }
      ],
      "payable": false,
      "stateMutability": "view",
      "type": "function"
    },
    {
      "constant": false,
      "inputs": [
        {
          "name": "serverHash",
          "type": "string"
        }
      ],
      "name": "giveTokens",
      "outputs": [],
      "payable": false,
      "stateMutability": "nonpayable",
      "type": "function"
    },
    {
      "constant": false,
      "inputs": [
        {
          "name": "serverHash",
          "type": "string"
        },
        {
          "name": "numOfData",
          "type": "uint256"
        },
        {
          "name": "accuracy",
          "type": "uint16"
        },
        {
          "name": "beneficiary",
          "type": "address"
        },
        {
          "name": "fileHash",
          "type": "string"
        }
      ],
      "name": "emitSeller",
      "outputs": [],
      "payable": false,
      "stateMutability": "nonpayable",
      "type": "function"
    },
    {
      "constant": false,
      "inputs": [
        {
          "name": "serverHash",
          "type": "string"
        },
        {
          "name": "numOfData",
          "type": "uint256"
        },
        {
          "name": "accuracy",
          "type": "uint16"
        },
        {
          "name": "beneficiary",
          "type": "address"
        }
      ],
      "name": "emitVerifier",
      "outputs": [],
      "payable": false,
      "stateMutability": "nonpayable",
      "type": "function"
    }
  ],
  "bytecode": "0x6080604052612710600260146101000a81548161ffff021916908361ffff160217905550612710600260166101000a81548161ffff021916908361ffff160217905550612710600260186101000a81548161ffff021916908361ffff160217905550600a60045560006005556000600a556000600b556000600c556000600d60006101000a81548160ff021916908315150217905550348015620000a257600080fd5b5060405160a080620029aa833981018060405260a0811015620000c457600080fd5b810190808051906020019092919080519060200190929190805190602001909291908051906020019092919080519060200190929190505050336000806101000a81548173ffffffffffffffffffffffffffffffffffffffff021916908373ffffffffffffffffffffffffffffffffffffffff1602179055506000809054906101000a900473ffffffffffffffffffffffffffffffffffffffff1673ffffffffffffffffffffffffffffffffffffffff16600073ffffffffffffffffffffffffffffffffffffffff167f8be0079c531659141344cd1fd0a4f28419497f9722a3daafe3b4186f6b6457e060405160405180910390a383600260006101000a81548173ffffffffffffffffffffffffffffffffffffffff021916908373ffffffffffffffffffffffffffffffffffffffff16021790555062000214846200045b640100000000026401000000009004565b84600160006101000a81548173ffffffffffffffffffffffffffffffffffffffff021916908373ffffffffffffffffffffffffffffffffffffffff1602179055508260038190555081600681905550806005819055506000600781905550600062000317620002c3600260169054906101000a900461ffff1661ffff16600260189054906101000a900461ffff1661ffff166200049d6401000000000262002115179091906401000000009004565b620002fa600260169054906101000a900461ffff1661ffff1687620004bf6401000000000262001671179091906401000000009004565b62000501640100000000026200214d179091906401000000009004565b905060006200033e82866200052d6401000000000262002177179091906401000000009004565b905062000363848362000501640100000000026200214d179091906401000000009004565b600881905550620003ae620003908486620004bf6401000000000262001671179091906401000000009004565b8262000501640100000000026200214d179091906401000000009004565b600981905550620003f0620003db8584620005506401000000000262002257179091906401000000009004565b62000577640100000000026401000000009004565b6200044e620004396200041b8587620004bf6401000000000262001671179091906401000000009004565b83620005506401000000000262002257179091906401000000009004565b62000577640100000000026401000000009004565b50505050505050620006f2565b62000474620005a0640100000000026401000000009004565b15156200048057600080fd5b6200049a81620005f7640100000000026401000000009004565b50565b6000808284019050838110151515620004b557600080fd5b8091505092915050565b600080831415620004d45760009050620004fb565b60008284029050828482811515620004e857fe5b04141515620004f657600080fd5b809150505b92915050565b600080821115156200051257600080fd5b600082848115156200052057fe5b0490508091505092915050565b60008282111515156200053f57600080fd5b600082840390508091505092915050565b60008082141515156200056257600080fd5b81838115156200056e57fe5b06905092915050565b6200059c81600c546200049d6401000000000262002115179091906401000000009004565b5050565b60008060009054906101000a900473ffffffffffffffffffffffffffffffffffffffff1673ffffffffffffffffffffffffffffffffffffffff163373ffffffffffffffffffffffffffffffffffffffff1614905090565b600073ffffffffffffffffffffffffffffffffffffffff168173ffffffffffffffffffffffffffffffffffffffff16141515156200063457600080fd5b8073ffffffffffffffffffffffffffffffffffffffff166000809054906101000a900473ffffffffffffffffffffffffffffffffffffffff1673ffffffffffffffffffffffffffffffffffffffff167f8be0079c531659141344cd1fd0a4f28419497f9722a3daafe3b4186f6b6457e060405160405180910390a3806000806101000a81548173ffffffffffffffffffffffffffffffffffffffff021916908373ffffffffffffffffffffffffffffffffffffffff16021790555050565b6122a880620007026000396000f3fe6080604052600436106100fc576000357c0100000000000000000000000000000000000000000000000000000000900463ffffffff16806316dd1f691461010b578063355274ea14610169578063505678ac14610194578063715018a6146101db57806389af8ae9146101f25780638da5cb5b146103055780638f32d59b1461035c5780639679dd7d1461038b57806396f80c5c146103b6578063ae55c8881461043c578063c139e64c146105be578063c257e8831461067c578063c650e738146106a7578063dc49be62146106d2578063f2fde38b146106fd578063f3e9371f1461074e578063f7407b4a14610779578063fc0c546a146107a4575b34801561010857600080fd5b50005b34801561011757600080fd5b506101206107fb565b604051808373ffffffffffffffffffffffffffffffffffffffff1673ffffffffffffffffffffffffffffffffffffffff1681526020018281526020019250505060405180910390f35b34801561017557600080fd5b5061017e610831565b6040518082815260200191505060405180910390f35b3480156101a057600080fd5b506101a961083b565b604051808681526020018581526020018481526020018381526020018281526020019550505050505060405180910390f35b3480156101e757600080fd5b506101f0610863565b005b3480156101fe57600080fd5b50610303600480360360a081101561021557600080fd5b810190808035906020019064010000000081111561023257600080fd5b82018360208201111561024457600080fd5b8035906020019184600183028401116401000000008311171561026657600080fd5b909192939192939080359060200190929190803561ffff169060200190929190803573ffffffffffffffffffffffffffffffffffffffff169060200190929190803590602001906401000000008111156102bf57600080fd5b8201836020820111156102d157600080fd5b803590602001918460018302840111640100000000831117156102f357600080fd5b9091929391929390505050610935565b005b34801561031157600080fd5b5061031a610bc1565b604051808273ffffffffffffffffffffffffffffffffffffffff1673ffffffffffffffffffffffffffffffffffffffff16815260200191505060405180910390f35b34801561036857600080fd5b50610371610bea565b604051808215151515815260200191505060405180910390f35b34801561039757600080fd5b506103a0610c41565b6040518082815260200191505060405180910390f35b3480156103c257600080fd5b5061043a600480360360208110156103d957600080fd5b81019080803590602001906401000000008111156103f657600080fd5b82018360208201111561040857600080fd5b8035906020019184600183028401116401000000008311171561042a57600080fd5b9091929391929390505050610d42565b005b34801561044857600080fd5b506105026004803603602081101561045f57600080fd5b810190808035906020019064010000000081111561047c57600080fd5b82018360208201111561048e57600080fd5b803590602001918460018302840111640100000000831117156104b057600080fd5b91908080601f016020809104026020016040519081016040528093929190818152602001838380828437600081840152601f19601f820116905080830192505050505050509192919290505050611074565b60405180806020018581526020018481526020018373ffffffffffffffffffffffffffffffffffffffff1673ffffffffffffffffffffffffffffffffffffffff168152602001828103825286818151815260200191508051906020019080838360005b83811015610580578082015181840152602081019050610565565b50505050905090810190601f1680156105ad5780820380516001836020036101000a031916815260200191505b509550505050505060405180910390f35b3480156105ca57600080fd5b5061067a600480360360808110156105e157600080fd5b81019080803590602001906401000000008111156105fe57600080fd5b82018360208201111561061057600080fd5b8035906020019184600183028401116401000000008311171561063257600080fd5b909192939192939080359060200190929190803561ffff169060200190929190803573ffffffffffffffffffffffffffffffffffffffff1690602001909291905050506113ba565b005b34801561068857600080fd5b50610691611587565b6040518082815260200191505060405180910390f35b3480156106b357600080fd5b506106bc611591565b6040518082815260200191505060405180910390f35b3480156106de57600080fd5b506106e761160a565b6040518082815260200191505060405180910390f35b34801561070957600080fd5b5061074c6004803603602081101561072057600080fd5b81019080803573ffffffffffffffffffffffffffffffffffffffff169060200190929190505050611614565b005b34801561075a57600080fd5b50610763611633565b6040518082815260200191505060405180910390f35b34801561078557600080fd5b5061078e61163d565b6040518082815260200191505060405180910390f35b3480156107b057600080fd5b506107b9611647565b604051808273ffffffffffffffffffffffffffffffffffffffff1673ffffffffffffffffffffffffffffffffffffffff16815260200191505060405180910390f35b600080600260009054906101000a900473ffffffffffffffffffffffffffffffffffffffff16610829610c41565b915091509091565b6000600354905090565b6000806000806000600354600854600654600754600c54945094509450945094509091929394565b61086b610bea565b151561087657600080fd5b600073ffffffffffffffffffffffffffffffffffffffff166000809054906101000a900473ffffffffffffffffffffffffffffffffffffffff1673ffffffffffffffffffffffffffffffffffffffff167f8be0079c531659141344cd1fd0a4f28419497f9722a3daafe3b4186f6b6457e060405160405180910390a360008060006101000a81548173ffffffffffffffffffffffffffffffffffffffff021916908373ffffffffffffffffffffffffffffffffffffffff160217905550565b61093d611647565b73ffffffffffffffffffffffffffffffffffffffff16633af32abf336040518263ffffffff167c0100000000000000000000000000000000000000000000000000000000028152600401808273ffffffffffffffffffffffffffffffffffffffff1673ffffffffffffffffffffffffffffffffffffffff16815260200191505060206040518083038186803b1580156109d557600080fd5b505afa1580156109e9573d6000803e3d6000fd5b505050506040513d60208110156109ff57600080fd5b81019080805190602001909291905050501515610a1b57600080fd5b6000610a328660085461167190919063ffffffff16565b9050610a8383838080601f016020809104026020016040519081016040528093929190818152602001838380828437600081840152601f19601f8201169050808301925050505050505087876116af565b610ad288888080601f016020809104026020016040519081016040528093929190818152602001838380828437600081840152601f19601f82011690508083019250505050505050858361172a565b610b6788888080601f016020809104026020016040519081016040528093929190818152602001838380828437600081840152601f19601f8201169050808301925050505050505087878787878080601f016020809104026020016040519081016040528093929190818152602001838380828437600081840152601f19601f820116905080830192505050505050506117a5565b610bb788888080601f016020809104026020016040519081016040528093929190818152602001838380828437600081840152601f19601f82011690508083019250505050505050868684611a7c565b5050505050505050565b60008060009054906101000a900473ffffffffffffffffffffffffffffffffffffffff16905090565b60008060009054906101000a900473ffffffffffffffffffffffffffffffffffffffff1673ffffffffffffffffffffffffffffffffffffffff163373ffffffffffffffffffffffffffffffffffffffff1614905090565b6000600c54600160009054906101000a900473ffffffffffffffffffffffffffffffffffffffff1673ffffffffffffffffffffffffffffffffffffffff166370a08231306040518263ffffffff167c0100000000000000000000000000000000000000000000000000000000028152600401808273ffffffffffffffffffffffffffffffffffffffff1673ffffffffffffffffffffffffffffffffffffffff16815260200191505060206040518083038186803b158015610d0157600080fd5b505afa158015610d15573d6000803e3d6000fd5b505050506040513d6020811015610d2b57600080fd5b810190808051906020019092919050505003905090565b610d4a611647565b73ffffffffffffffffffffffffffffffffffffffff16633af32abf336040518263ffffffff167c0100000000000000000000000000000000000000000000000000000000028152600401808273ffffffffffffffffffffffffffffffffffffffff1673ffffffffffffffffffffffffffffffffffffffff16815260200191505060206040518083038186803b158015610de257600080fd5b505afa158015610df6573d6000803e3d6000fd5b505050506040513d6020811015610e0c57600080fd5b81019080805190602001909291905050501515610e2857600080fd5b610eeb82828080601f016020809104026020016040519081016040528093929190818152602001838380828437600081840152601f19601f82011690508083019250505050505050600e8484604051808383808284378083019250505092505050908152602001604051809103902060000160009054906101000a900473ffffffffffffffffffffffffffffffffffffffff16600e8585604051808383808284378083019250505092505050908152602001604051809103902060010154611bff565b610fae82828080601f016020809104026020016040519081016040528093929190818152602001838380828437600081840152601f19601f82011690508083019250505050505050600e8484604051808383808284378083019250505092505050908152602001604051809103902060000160009054906101000a900473ffffffffffffffffffffffffffffffffffffffff16600e8585604051808383808284378083019250505092505050908152602001604051809103902060010154611dcd565b600e8282604051808383808284378083019250505092505050908152602001604051809103902060000160009054906101000a900473ffffffffffffffffffffffffffffffffffffffff1673ffffffffffffffffffffffffffffffffffffffff167f24a756d1a2c8f2c24ad07b6b6c6a46090bce16d2523224ca3aae963753b3622c600e84846040518083838082843780830192505050925050509081526020016040518091039020600101546040518082815260200191505060405180910390a25050565b60606000806000611083610bea565b151561108e57600080fd5b6000600f866040518082805190602001908083835b6020831015156110c857805182526020820191506020810190506020830392506110a3565b6001836020036101000a038019825116818451168082178552505050505050905001915050908152602001604051809103902060000180546001816001161561010002031660029004905011151561111f57600080fd5b600f856040518082805190602001908083835b6020831015156111575780518252602082019150602081019050602083039250611132565b6001836020036101000a0380198251168184511680821785525050505050509050019150509081526020016040518091039020600001600f866040518082805190602001908083835b6020831015156111c557805182526020820191506020810190506020830392506111a0565b6001836020036101000a038019825116818451168082178552505050505050905001915050908152602001604051809103902060010154600f876040518082805190602001908083835b602083101515611234578051825260208201915060208101905060208303925061120f565b6001836020036101000a038019825116818451168082178552505050505050905001915050908152602001604051809103902060020160149054906101000a900461ffff16600f886040518082805190602001908083835b6020831015156112b1578051825260208201915060208101905060208303925061128c565b6001836020036101000a038019825116818451168082178552505050505050905001915050908152602001604051809103902060020160009054906101000a900473ffffffffffffffffffffffffffffffffffffffff16838054600181600116156101000203166002900480601f01602080910402602001604051908101604052809291908181526020018280546001816001161561010002031660029004801561139d5780601f106113725761010080835404028352916020019161139d565b820191906000526020600020905b81548152906001019060200180831161138057829003601f168201915b505050505093508161ffff16915093509350935093509193509193565b6113c2611647565b73ffffffffffffffffffffffffffffffffffffffff16633af32abf336040518263ffffffff167c0100000000000000000000000000000000000000000000000000000000028152600401808273ffffffffffffffffffffffffffffffffffffffff1673ffffffffffffffffffffffffffffffffffffffff16815260200191505060206040518083038186803b15801561145a57600080fd5b505afa15801561146e573d6000803e3d6000fd5b505050506040513d602081101561148457600080fd5b810190808051906020019092919050505015156114a057600080fd5b60006114b78460095461167190919063ffffffff16565b9050600260149054906101000a900461ffff1661ffff168361ffff16111515156114e057600080fd5b61152f86868080601f016020809104026020016040519081016040528093929190818152602001838380828437600081840152601f19601f82011690508083019250505050505050838361172a565b61157f86868080601f016020809104026020016040519081016040528093929190818152602001838380828437600081840152601f19601f82011690508083019250505050505050848484611a7c565b505050505050565b6000600854905090565b600061159b610bea565b15156115a657600080fd5b600260009054906101000a900473ffffffffffffffffffffffffffffffffffffffff1673ffffffffffffffffffffffffffffffffffffffff163373ffffffffffffffffffffffffffffffffffffffff1614151561160257600080fd5b600c54905090565b6000600654905090565b61161c610bea565b151561162757600080fd5b6116308161201b565b50565b6000600a54905090565b6000600754905090565b6000600160009054906101000a900473ffffffffffffffffffffffffffffffffffffffff16905090565b60008083141561168457600090506116a9565b6000828402905082848281151561169757fe5b041415156116a457600080fd5b809150505b92915050565b600260149054906101000a900461ffff1661ffff168161ffff16111515156116d657600080fd5b600083511115156116e657600080fd5b600082141515156116f657600080fd5b6116fe61160a565b6117188361170a61163d565b61211590919063ffffffff16565b1115151561172557600080fd5b505050565b600073ffffffffffffffffffffffffffffffffffffffff168273ffffffffffffffffffffffffffffffffffffffff161415151561176657600080fd5b6000835111151561177657600080fd5b8061177f610c41565b1015151561178c57600080fd5b611794612136565b1515156117a057600080fd5b505050565b83600f866040518082805190602001908083835b6020831015156117de57805182526020820191506020810190506020830392506117b9565b6001836020036101000a03801982511681845116808217855250505050505090500191505090815260200160405180910390206001018190555082600f866040518082805190602001908083835b602083101515611851578051825260208201915060208101905060208303925061182c565b6001836020036101000a038019825116818451168082178552505050505050905001915050908152602001604051809103902060020160146101000a81548161ffff021916908361ffff16021790555081600f866040518082805190602001908083835b6020831015156118da57805182526020820191506020810190506020830392506118b5565b6001836020036101000a038019825116818451168082178552505050505050905001915050908152602001604051809103902060020160006101000a81548173ffffffffffffffffffffffffffffffffffffffff021916908373ffffffffffffffffffffffffffffffffffffffff16021790555080600f866040518082805190602001908083835b6020831015156119875780518252602082019150602081019050602083039250611962565b6001836020036101000a038019825116818451168082178552505050505050905001915050908152602001604051809103902060000190805190602001906119d09291906121b2565b506119e68460075461211590919063ffffffff16565b6007819055507ff3ed3d6eeb73afbb562f79fcf662eaaa3e17ee90a0be461d0970ea4e9b4ac87884611a1661163d565b611a1e61160a565b85604051808581526020018481526020018381526020018273ffffffffffffffffffffffffffffffffffffffff1673ffffffffffffffffffffffffffffffffffffffff16815260200194505050505060405180910390a15050505050565b6000611abb600260149054906101000a900461ffff1661ffff16611aad8661ffff168561167190919063ffffffff16565b61214d90919063ffffffff16565b905082600e866040518082805190602001908083835b602083101515611af65780518252602082019150602081019050602083039250611ad1565b6001836020036101000a038019825116818451168082178552505050505050905001915050908152602001604051809103902060000160006101000a81548173ffffffffffffffffffffffffffffffffffffffff021916908373ffffffffffffffffffffffffffffffffffffffff16021790555080600e866040518082805190602001908083835b602083101515611ba35780518252602082019150602081019050602083039250611b7e565b6001836020036101000a038019825116818451168082178552505050505050905001915050908152602001604051809103902060010181905550611bf8611bf3828461217790919063ffffffff16565b612199565b5050505050565b600073ffffffffffffffffffffffffffffffffffffffff168273ffffffffffffffffffffffffffffffffffffffff1614151515611c3b57600080fd5b60008114151515611c4b57600080fd5b60008351111515611c5b57600080fd5b600115156010846040518082805190602001908083835b602083101515611c975780518252602082019150602081019050602083039250611c72565b6001836020036101000a038019825116818451168082178552505050505050905001915050908152602001604051809103902060010160009054906101000a900460ff16151514151515611cea57600080fd5b8173ffffffffffffffffffffffffffffffffffffffff16600e846040518082805190602001908083835b602083101515611d395780518252602082019150602081019050602083039250611d14565b6001836020036101000a038019825116818451168082178552505050505050905001915050908152602001604051809103902060000160009054906101000a900473ffffffffffffffffffffffffffffffffffffffff1673ffffffffffffffffffffffffffffffffffffffff16141515611db257600080fd5b80611dbb610c41565b10151515611dc857600080fd5b505050565b806010846040518082805190602001908083835b602083101515611e065780518252602082019150602081019050602083039250611de1565b6001836020036101000a03801982511681845116808217855250505050505090500191505090815260200160405180910390206000018190555060016010846040518082805190602001908083835b602083101515611e7a5780518252602082019150602081019050602083039250611e55565b6001836020036101000a038019825116818451168082178552505050505050905001915050908152602001604051809103902060010160006101000a81548160ff021916908315150217905550600160009054906101000a900473ffffffffffffffffffffffffffffffffffffffff1673ffffffffffffffffffffffffffffffffffffffff1663a9059cbb83836040518363ffffffff167c0100000000000000000000000000000000000000000000000000000000028152600401808373ffffffffffffffffffffffffffffffffffffffff1673ffffffffffffffffffffffffffffffffffffffff16815260200182815260200192505050602060405180830381600087803b158015611f8c57600080fd5b505af1158015611fa0573d6000803e3d6000fd5b505050506040513d6020811015611fb657600080fd5b8101908080519060200190929190505050508173ffffffffffffffffffffffffffffffffffffffff167f24a756d1a2c8f2c24ad07b6b6c6a46090bce16d2523224ca3aae963753b3622c826040518082815260200191505060405180910390a2505050565b600073ffffffffffffffffffffffffffffffffffffffff168173ffffffffffffffffffffffffffffffffffffffff161415151561205757600080fd5b8073ffffffffffffffffffffffffffffffffffffffff166000809054906101000a900473ffffffffffffffffffffffffffffffffffffffff1673ffffffffffffffffffffffffffffffffffffffff167f8be0079c531659141344cd1fd0a4f28419497f9722a3daafe3b4186f6b6457e060405160405180910390a3806000806101000a81548173ffffffffffffffffffffffffffffffffffffffff021916908373ffffffffffffffffffffffffffffffffffffffff16021790555050565b600080828401905083811015151561212c57600080fd5b8091505092915050565b6000600d60009054906101000a900460ff16905090565b6000808211151561215d57600080fd5b6000828481151561216a57fe5b0490508091505092915050565b600082821115151561218857600080fd5b600082840390508091505092915050565b6121ae81600c5461211590919063ffffffff16565b5050565b828054600181600116156101000203166002900490600052602060002090601f016020900481019282601f106121f357805160ff1916838001178555612221565b82800160010185558215612221579182015b82811115612220578251825591602001919060010190612205565b5b50905061222e9190612232565b5090565b61225491905b80821115612250576000816000905550600101612238565b5090565b90565b600080821415151561226857600080fd5b818381151561227357fe5b0690509291505056fea165627a7a723058207c080886f86e10aaad02a427a461b16ee4f0ff049ca2467708366bbbf074bd600029",
  "source": "pragma solidity ^0.5.0;\n\nimport \"openzeppelin-solidity/contracts/token/ERC20/SafeERC20.sol\";\nimport \"openzeppelin-solidity/contracts/ownership/Ownable.sol\";\n//import \"openzeppelin-solidity/contracts/access/roles/WhitelistAdminRole.sol\";\nimport \"./NaraMalsamiToken.sol\";\n\ncontract NaraMalsamiTokenTrade is Ownable{\n\n    using SafeMath for uint256;\n    using SafeMath for uint16;\n\n    NaraMalsamiToken private _token;    // Address of NMT\n    address private _wallet;            // Address of a buyer\n\n    uint16 private _maxAccuracy = 10000;  // 100% = 10000\n    uint16 private _sellerRatio = 10000;\n    uint16 private _verifierRatio = 10000;\n\n    uint256 private _cap;\n    uint256 private _sellerNum=10;      // Not used yet\n    uint256 private _verifierNum = 0;\n\n    uint256 private _dataGoal;\n    uint256 private _dataRaised;\n\n    uint256 private _weiPerData;        // Tokens per 1 data\n    uint256 private _weiPerVerifier;    // Tokens per 1-data-verified-by-1-verifier\n\n    uint256 private _dataBlockCounter = 0;      // Not used yet\n    uint256 private _verifierBlockCounter = 0;  // Not used yet\n\n    uint256 private _refundTokenAmount = 0;     // Sum of divided integer leftovers and accuracy based token deduction\n    bool private _refundClaimed = false;\n\n    struct Claim {\n        uint256 _tokenAmount;\n        bool    _exist;\n    }\n    struct DataBlock{\n        string  _fileHash;\n        uint256 _numOfData;\n        address _seller;\n        uint16   _accuracy;\n    }\n    struct UserBlock{\n        address _beneficiary;\n        uint256 _tokenAmount;\n    }\n    mapping (string => UserBlock) private _userData;    // serverHash => UserBlock\n    mapping (string => DataBlock) private _fileData;    // serverHash => DataBlock : Seller(_userdata) and _filedata shares same serverHash!\n    mapping (string => Claim) private _claimed;         // serverHash => Claim\n\n    event tokensReceived    (address indexed beneficiary, uint256 tokenAmount);\n    event fileEmitted       (uint256 numOfData, uint256 dataRaised, uint256 dataGoal, address seller);\n\n    constructor(\n        NaraMalsamiToken token,\n        address wallet,\n        uint256 cap,\n        uint256 dataGoal,\n        uint256 verifierNum\n    )\n    public {\n        _wallet = wallet;\n        transferOwnership(wallet);\n\n        _token = token;\n        _cap = cap;\n        _dataGoal = dataGoal;\n        _verifierNum = verifierNum;\n        _dataRaised = 0;\n\n        // Sum of tokens that sellers can get\n        uint256 sellerSum = cap\n        .mul(_sellerRatio)\n        .div(_verifierRatio.add(_sellerRatio));\n\n        // Sum of tokens that verifiers can get\n        uint256 verifierSum = cap.sub(sellerSum);\n\n        _weiPerData = sellerSum.div(dataGoal);\n        _weiPerVerifier = verifierSum.div(dataGoal.mul(verifierNum));\n\n        // Freeze integer leftovers\n        freeze(sellerSum.mod(dataGoal));\n        freeze(verifierSum.mod(dataGoal.mul(verifierNum)));\n    }\n\n    modifier onlyServer(){\n        require(token().isWhitelisted(msg.sender));\n        _;\n    }\n\n    //fallback\n    function () external {\n\n    }\n\n    //getters\n    function token()                public view returns (NaraMalsamiToken) {\n        return _token;\n    }\n    function cap()                  public view returns (uint256) {\n        return _cap;\n    }\n    function weiPerData()           public view returns (uint256) {\n        return _weiPerData;\n    }\n    function dataGoal()             public view returns (uint256) {\n        return _dataGoal;\n    }\n    function dataRaised()           public view returns (uint256) {\n        return _dataRaised;\n    }\n    function dataBlockCounter()     public view returns (uint256) {\n        return _dataBlockCounter;\n    }\n    function tokenLeft()            public view returns (uint256) {\n        return _token.balanceOf(address(this)) - _refundTokenAmount;\n    }\n    function refundClaimed()        internal view returns (bool) {\n        return _refundClaimed;\n    }\n    function refundTokenAmount()    public view onlyOwner returns(uint256) {\n        require(msg.sender == _wallet);\n        return _refundTokenAmount;\n    }\n\n\n\n\n    function dataStatus() public view\n    returns(uint256, uint256, uint256, uint256, uint256){\n        return(_cap, _weiPerData, _dataGoal, _dataRaised, _refundTokenAmount);\n    }\n\n    function transactionStatus() public view\n    returns(address, uint256){\n        return(_wallet, tokenLeft());\n    }\n\n    function getData(string memory serverHash) public view onlyOwner\n    returns(string memory, uint256, uint256, address){\n        require(bytes(_fileData[serverHash]._fileHash).length > 0);\n\n        return (_fileData[serverHash]._fileHash, _fileData[serverHash]._numOfData,\n        _fileData[serverHash]._accuracy, _fileData[serverHash]._seller);\n    }\n\n    function giveTokens(string calldata serverHash) external onlyServer{\n        _preValidatePurchase(serverHash, _userData[serverHash]._beneficiary, _userData[serverHash]._tokenAmount);\n        _deliverTokens(serverHash, _userData[serverHash]._beneficiary, _userData[serverHash]._tokenAmount);\n\n        emit tokensReceived(_userData[serverHash]._beneficiary, _userData[serverHash]._tokenAmount);\n    }\n\n    function emitSeller     (string calldata serverHash, uint256 numOfData, uint16 accuracy, address beneficiary, string calldata fileHash) external onlyServer {\n        uint256 tokenAmount = _weiPerData.mul(numOfData);\n\n        _preValidateData(fileHash, numOfData, accuracy);            // will be removed later\n        _preValidateUser(serverHash, beneficiary, tokenAmount);\n\n        _setFile(serverHash, numOfData, accuracy, beneficiary, fileHash);\n        _setUser(serverHash, accuracy, beneficiary, tokenAmount);\n    }\n\n    function emitVerifier   (string calldata serverHash, uint256 numOfData, uint16 accuracy, address beneficiary) external onlyServer {\n        uint256 tokenAmount = _weiPerVerifier.mul(numOfData);\n        require(accuracy <= _maxAccuracy);                        // will be removed later\n\n        _preValidateUser(serverHash, beneficiary, tokenAmount);\n        _setUser(serverHash, accuracy, beneficiary, tokenAmount);\n    }\n\n\n    function _setFile(string memory serverHash, uint256 numOfData, uint16 accuracy, address beneficiary, string memory fileHash) internal{\n        _fileData[serverHash]._numOfData    = numOfData;\n        _fileData[serverHash]._accuracy     = accuracy;\n        _fileData[serverHash]._seller       = beneficiary;\n        _fileData[serverHash]._fileHash     = fileHash;\n\n        _dataRaised = _dataRaised.add(numOfData);\n\n        emit fileEmitted(numOfData, dataRaised(), dataGoal(), beneficiary);\n    }\n\n    function _setUser(string memory serverHash, uint16 accuracy, address beneficiary, uint256 tokenAmount) internal{\n        uint256 tokenGet = tokenAmount.mul(accuracy).div(_maxAccuracy);\n        _userData[serverHash]._beneficiary = beneficiary;\n        _userData[serverHash]._tokenAmount = tokenGet;\n        freeze(tokenAmount.sub(tokenGet));\n    }\n\n\n    function _deliverTokens(string memory serverHash, address beneficiary, uint256 tokenAmount) internal{\n        _claimed[serverHash]._tokenAmount = tokenAmount;\n        _claimed[serverHash]._exist = true;\n\n        //_token.transferFrom(address(this), beneficiary, tokenAmount);\n        _token.transfer(beneficiary, tokenAmount);\n        emit tokensReceived(beneficiary, tokenAmount);\n    }\n\n\n    function _preValidateData(string memory fileHash, uint256 numOfData, uint16 accuracy) internal view {\n        require(accuracy <= _maxAccuracy);\n        require(bytes(fileHash).length > 0);\n        require(numOfData != 0);\n        require(dataRaised().add(numOfData) <= dataGoal());\n    }\n\n    function _preValidateUser(string memory serverHash, address beneficiary, uint256 tokenAmount) internal view{\n        require(beneficiary != address(0));\n        require(bytes(serverHash).length > 0);\n        require(tokenLeft() >= tokenAmount);\n        require(!refundClaimed());\n    }\n\n    function _preValidatePurchase(string memory serverHash, address beneficiary, uint256 tokenAmount) internal view {\n        require(beneficiary != address(0));\n        require(tokenAmount != 0);\n        require(bytes(serverHash).length > 0);\n        require(_claimed[serverHash]._exist != true);\n        require(_userData[serverHash]._beneficiary == beneficiary);\n        require(tokenLeft() >= tokenAmount);\n    }\n\n    function freeze(uint256 amount) internal {\n        _refundTokenAmount.add(amount);\n    }\n\n}",
  "sourcePath": "C:\\GitHub\\NMT-Solidity\\contracts\\NaraMalsamiTokenTrade.sol",
  "compiler": {
    "name": "solc",
    "version": "0.5.0+commit.1d4f565a.Emscripten.clang"
  },
  "schemaVersion": "3.0.3",
  "updatedAt": "2019-05-17T04:27:47.035Z",
  "devdoc": {
    "methods": {
      "isOwner()": {
        "return": "true if `msg.sender` is the owner of the contract.\r"
      },
      "owner()": {
        "return": "the address of the owner.\r"
      },
      "renounceOwnership()": {
        "details": "Allows the current owner to relinquish control of the contract.\r"
      },
      "transferOwnership(address)": {
        "details": "Allows the current owner to transfer control of the contract to a newOwner.\r",
        "params": {
          "newOwner": "The address to transfer ownership to.\r"
        }
      }
    }
  },
  "userdoc": {
    "methods": {
      "renounceOwnership()": {
        "notice": "Renouncing to ownership will leave the contract without an owner.\r It will not be possible to call the functions with the `onlyOwner`\r modifier anymore.\r"
      }
    }
  }
}