{
  "contractName": "NaraMalsamiToken",
  "abi": [
    {
      "constant": true,
      "inputs": [],
      "name": "name",
      "outputs": [
        {
          "name": "",
          "type": "string"
        }
      ],
      "payable": false,
      "stateMutability": "view",
      "type": "function",
      "signature": "0x06fdde03"
    },
    {
      "constant": false,
      "inputs": [
        {
          "name": "spender",
          "type": "address"
        },
        {
          "name": "value",
          "type": "uint256"
        }
      ],
      "name": "approve",
      "outputs": [
        {
          "name": "",
          "type": "bool"
        }
      ],
      "payable": false,
      "stateMutability": "nonpayable",
      "type": "function",
      "signature": "0x095ea7b3"
    },
    {
      "constant": false,
      "inputs": [
        {
          "name": "account",
          "type": "address"
        }
      ],
      "name": "addWhitelisted",
      "outputs": [],
      "payable": false,
      "stateMutability": "nonpayable",
      "type": "function",
      "signature": "0x10154bad"
    },
    {
      "constant": true,
      "inputs": [],
      "name": "totalSupply",
      "outputs": [
        {
          "name": "",
          "type": "uint256"
        }
      ],
      "payable": false,
      "stateMutability": "view",
      "type": "function",
      "signature": "0x18160ddd"
    },
    {
      "constant": false,
      "inputs": [
        {
          "name": "from",
          "type": "address"
        },
        {
          "name": "to",
          "type": "address"
        },
        {
          "name": "value",
          "type": "uint256"
        }
      ],
      "name": "transferFrom",
      "outputs": [
        {
          "name": "",
          "type": "bool"
        }
      ],
      "payable": false,
      "stateMutability": "nonpayable",
      "type": "function",
      "signature": "0x23b872dd"
    },
    {
      "constant": false,
      "inputs": [
        {
          "name": "account",
          "type": "address"
        }
      ],
      "name": "removeWhitelisted",
      "outputs": [],
      "payable": false,
      "stateMutability": "nonpayable",
      "type": "function",
      "signature": "0x291d9549"
    },
    {
      "constant": true,
      "inputs": [],
      "name": "DECIMALS",
      "outputs": [
        {
          "name": "",
          "type": "uint8"
        }
      ],
      "payable": false,
      "stateMutability": "view",
      "type": "function",
      "signature": "0x2e0f2625"
    },
    {
      "constant": true,
      "inputs": [],
      "name": "INITIAL_SUPPLY",
      "outputs": [
        {
          "name": "",
          "type": "uint256"
        }
      ],
      "payable": false,
      "stateMutability": "view",
      "type": "function",
      "signature": "0x2ff2e9dc"
    },
    {
      "constant": true,
      "inputs": [],
      "name": "decimals",
      "outputs": [
        {
          "name": "",
          "type": "uint8"
        }
      ],
      "payable": false,
      "stateMutability": "view",
      "type": "function",
      "signature": "0x313ce567"
    },
    {
      "constant": false,
      "inputs": [
        {
          "name": "spender",
          "type": "address"
        },
        {
          "name": "addedValue",
          "type": "uint256"
        }
      ],
      "name": "increaseAllowance",
      "outputs": [
        {
          "name": "",
          "type": "bool"
        }
      ],
      "payable": false,
      "stateMutability": "nonpayable",
      "type": "function",
      "signature": "0x39509351"
    },
    {
      "constant": true,
      "inputs": [
        {
          "name": "account",
          "type": "address"
        }
      ],
      "name": "isWhitelisted",
      "outputs": [
        {
          "name": "",
          "type": "bool"
        }
      ],
      "payable": false,
      "stateMutability": "view",
      "type": "function",
      "signature": "0x3af32abf"
    },
    {
      "constant": false,
      "inputs": [],
      "name": "renounceWhitelistAdmin",
      "outputs": [],
      "payable": false,
      "stateMutability": "nonpayable",
      "type": "function",
      "signature": "0x4c5a628c"
    },
    {
      "constant": true,
      "inputs": [
        {
          "name": "owner",
          "type": "address"
        }
      ],
      "name": "balanceOf",
      "outputs": [
        {
          "name": "",
          "type": "uint256"
        }
      ],
      "payable": false,
      "stateMutability": "view",
      "type": "function",
      "signature": "0x70a08231"
    },
    {
      "constant": false,
      "inputs": [],
      "name": "renounceOwnership",
      "outputs": [],
      "payable": false,
      "stateMutability": "nonpayable",
      "type": "function",
      "signature": "0x715018a6"
    },
    {
      "constant": false,
      "inputs": [
        {
          "name": "account",
          "type": "address"
        }
      ],
      "name": "addWhitelistAdmin",
      "outputs": [],
      "payable": false,
      "stateMutability": "nonpayable",
      "type": "function",
      "signature": "0x7362d9c8"
    },
    {
      "constant": true,
      "inputs": [],
      "name": "owner",
      "outputs": [
        {
          "name": "",
          "type": "address"
        }
      ],
      "payable": false,
      "stateMutability": "view",
      "type": "function",
      "signature": "0x8da5cb5b"
    },
    {
      "constant": true,
      "inputs": [],
      "name": "isOwner",
      "outputs": [
        {
          "name": "",
          "type": "bool"
        }
      ],
      "payable": false,
      "stateMutability": "view",
      "type": "function",
      "signature": "0x8f32d59b"
    },
    {
      "constant": true,
      "inputs": [],
      "name": "symbol",
      "outputs": [
        {
          "name": "",
          "type": "string"
        }
      ],
      "payable": false,
      "stateMutability": "view",
      "type": "function",
      "signature": "0x95d89b41"
    },
    {
      "constant": false,
      "inputs": [
        {
          "name": "spender",
          "type": "address"
        },
        {
          "name": "subtractedValue",
          "type": "uint256"
        }
      ],
      "name": "decreaseAllowance",
      "outputs": [
        {
          "name": "",
          "type": "bool"
        }
      ],
      "payable": false,
      "stateMutability": "nonpayable",
      "type": "function",
      "signature": "0xa457c2d7"
    },
    {
      "constant": false,
      "inputs": [
        {
          "name": "to",
          "type": "address"
        },
        {
          "name": "value",
          "type": "uint256"
        }
      ],
      "name": "transfer",
      "outputs": [
        {
          "name": "",
          "type": "bool"
        }
      ],
      "payable": false,
      "stateMutability": "nonpayable",
      "type": "function",
      "signature": "0xa9059cbb"
    },
    {
      "constant": true,
      "inputs": [
        {
          "name": "account",
          "type": "address"
        }
      ],
      "name": "isWhitelistAdmin",
      "outputs": [
        {
          "name": "",
          "type": "bool"
        }
      ],
      "payable": false,
      "stateMutability": "view",
      "type": "function",
      "signature": "0xbb5f747b"
    },
    {
      "constant": false,
      "inputs": [],
      "name": "renounceWhitelisted",
      "outputs": [],
      "payable": false,
      "stateMutability": "nonpayable",
      "type": "function",
      "signature": "0xd6cd9473"
    },
    {
      "constant": true,
      "inputs": [
        {
          "name": "owner",
          "type": "address"
        },
        {
          "name": "spender",
          "type": "address"
        }
      ],
      "name": "allowance",
      "outputs": [
        {
          "name": "",
          "type": "uint256"
        }
      ],
      "payable": false,
      "stateMutability": "view",
      "type": "function",
      "signature": "0xdd62ed3e"
    },
    {
      "constant": true,
      "inputs": [],
      "name": "fee",
      "outputs": [
        {
          "name": "",
          "type": "uint16"
        }
      ],
      "payable": false,
      "stateMutability": "view",
      "type": "function",
      "signature": "0xddca3f43"
    },
    {
      "constant": false,
      "inputs": [
        {
          "name": "newOwner",
          "type": "address"
        }
      ],
      "name": "transferOwnership",
      "outputs": [],
      "payable": false,
      "stateMutability": "nonpayable",
      "type": "function",
      "signature": "0xf2fde38b"
    },
    {
      "constant": true,
      "inputs": [],
      "name": "server",
      "outputs": [
        {
          "name": "",
          "type": "address"
        }
      ],
      "payable": false,
      "stateMutability": "view",
      "type": "function",
      "signature": "0xfd922a42"
    },
    {
      "inputs": [],
      "payable": false,
      "stateMutability": "nonpayable",
      "type": "constructor",
      "signature": "constructor"
    },
    {
      "anonymous": false,
      "inputs": [
        {
          "indexed": false,
          "name": "maker",
          "type": "address"
        },
        {
          "indexed": false,
          "name": "tradeAddress",
          "type": "address"
        }
      ],
      "name": "tradeMade",
      "type": "event",
      "signature": "0x8ae111c34d2c04a708c524ba9a2a918eb96bb88c771f7dd204858ee30651cddb"
    },
    {
      "anonymous": false,
      "inputs": [
        {
          "indexed": true,
          "name": "previousOwner",
          "type": "address"
        },
        {
          "indexed": true,
          "name": "newOwner",
          "type": "address"
        }
      ],
      "name": "OwnershipTransferred",
      "type": "event",
      "signature": "0x8be0079c531659141344cd1fd0a4f28419497f9722a3daafe3b4186f6b6457e0"
    },
    {
      "anonymous": false,
      "inputs": [
        {
          "indexed": true,
          "name": "account",
          "type": "address"
        }
      ],
      "name": "WhitelistedAdded",
      "type": "event",
      "signature": "0xee1504a83b6d4a361f4c1dc78ab59bfa30d6a3b6612c403e86bb01ef2984295f"
    },
    {
      "anonymous": false,
      "inputs": [
        {
          "indexed": true,
          "name": "account",
          "type": "address"
        }
      ],
      "name": "WhitelistedRemoved",
      "type": "event",
      "signature": "0x270d9b30cf5b0793bbfd54c9d5b94aeb49462b8148399000265144a8722da6b6"
    },
    {
      "anonymous": false,
      "inputs": [
        {
          "indexed": true,
          "name": "account",
          "type": "address"
        }
      ],
      "name": "WhitelistAdminAdded",
      "type": "event",
      "signature": "0x22380c05984257a1cb900161c713dd71d39e74820f1aea43bd3f1bdd20961299"
    },
    {
      "anonymous": false,
      "inputs": [
        {
          "indexed": true,
          "name": "account",
          "type": "address"
        }
      ],
      "name": "WhitelistAdminRemoved",
      "type": "event",
      "signature": "0x0a8eb35e5ca14b3d6f28e4abf2f128dbab231a58b56e89beb5d636115001e165"
    },
    {
      "anonymous": false,
      "inputs": [
        {
          "indexed": true,
          "name": "from",
          "type": "address"
        },
        {
          "indexed": true,
          "name": "to",
          "type": "address"
        },
        {
          "indexed": false,
          "name": "value",
          "type": "uint256"
        }
      ],
      "name": "Transfer",
      "type": "event",
      "signature": "0xddf252ad1be2c89b69c2b068fc378daa952ba7f163c4a11628f55a4df523b3ef"
    },
    {
      "anonymous": false,
      "inputs": [
        {
          "indexed": true,
          "name": "owner",
          "type": "address"
        },
        {
          "indexed": true,
          "name": "spender",
          "type": "address"
        },
        {
          "indexed": false,
          "name": "value",
          "type": "uint256"
        }
      ],
      "name": "Approval",
      "type": "event",
      "signature": "0x8c5be1e5ebec7d5bd14f71427d1e84f3dd0314c0f7b2291e5b200ac8c7c3b925"
    },
    {
      "constant": false,
      "inputs": [
        {
          "name": "_server",
          "type": "address"
        }
      ],
      "name": "setServer",
      "outputs": [],
      "payable": false,
      "stateMutability": "nonpayable",
      "type": "function",
      "signature": "0xf19a0b54"
    },
    {
      "constant": true,
      "inputs": [],
      "name": "getServer",
      "outputs": [
        {
          "name": "",
          "type": "address"
        }
      ],
      "payable": false,
      "stateMutability": "view",
      "type": "function",
      "signature": "0x089587cd"
    },
    {
      "constant": true,
      "inputs": [],
      "name": "getDecimals",
      "outputs": [
        {
          "name": "",
          "type": "uint8"
        }
      ],
      "payable": false,
      "stateMutability": "pure",
      "type": "function",
      "signature": "0xf0141d84"
    },
    {
      "constant": false,
      "inputs": [
        {
          "name": "cap",
          "type": "uint256"
        },
        {
          "name": "dataNum",
          "type": "uint256"
        },
        {
          "name": "verifierNum",
          "type": "uint256"
        }
      ],
      "name": "newTrade",
      "outputs": [
        {
          "name": "",
          "type": "bool"
        }
      ],
      "payable": false,
      "stateMutability": "nonpayable",
      "type": "function",
      "signature": "0xf9fecc9a"
    }
  ],
  "bytecode": "0x60806040523480156200001157600080fd5b506040805190810160405280601081526020017f4e6172614d616c73616d69546f6b656e000000000000000000000000000000008152506040805190810160405280600381526020017f4e4d540000000000000000000000000000000000000000000000000000000000815250601282600390805190602001906200009892919062000624565b508160049080519060200190620000b192919062000624565b5080600560006101000a81548160ff021916908360ff160217905550505050620000ea33620001f1640100000000026401000000009004565b33600860006101000a81548173ffffffffffffffffffffffffffffffffffffffff021916908373ffffffffffffffffffffffffffffffffffffffff160217905550600860009054906101000a900473ffffffffffffffffffffffffffffffffffffffff1673ffffffffffffffffffffffffffffffffffffffff16600073ffffffffffffffffffffffffffffffffffffffff167f8be0079c531659141344cd1fd0a4f28419497f9722a3daafe3b4186f6b6457e060405160405180910390a3620001d133601260ff16600a0a6402540be400026200025b640100000000026401000000009004565b620001eb33620003d0640100000000026401000000009004565b620006d3565b62000215816006620004136401000000000262002065179091906401000000009004565b8073ffffffffffffffffffffffffffffffffffffffff167f22380c05984257a1cb900161c713dd71d39e74820f1aea43bd3f1bdd2096129960405160405180910390a250565b600073ffffffffffffffffffffffffffffffffffffffff168273ffffffffffffffffffffffffffffffffffffffff16141515156200029857600080fd5b620002bd81600254620004d66401000000000262001d8b179091906401000000009004565b60028190555062000324816000808573ffffffffffffffffffffffffffffffffffffffff1673ffffffffffffffffffffffffffffffffffffffff16815260200190815260200160002054620004d66401000000000262001d8b179091906401000000009004565b6000808473ffffffffffffffffffffffffffffffffffffffff1673ffffffffffffffffffffffffffffffffffffffff168152602001908152602001600020819055508173ffffffffffffffffffffffffffffffffffffffff16600073ffffffffffffffffffffffffffffffffffffffff167fddf252ad1be2c89b69c2b068fc378daa952ba7f163c4a11628f55a4df523b3ef836040518082815260200191505060405180910390a35050565b620003ea33620004f8640100000000026401000000009004565b1515620003f657600080fd5b620004108162000525640100000000026401000000009004565b50565b600073ffffffffffffffffffffffffffffffffffffffff168173ffffffffffffffffffffffffffffffffffffffff16141515156200045057600080fd5b6200046b82826200058f640100000000026401000000009004565b1515156200047857600080fd5b60018260000160008373ffffffffffffffffffffffffffffffffffffffff1673ffffffffffffffffffffffffffffffffffffffff16815260200190815260200160002060006101000a81548160ff0219169083151502179055505050565b6000808284019050838110151515620004ee57600080fd5b8091505092915050565b60006200051e8260066200058f6401000000000262001dad179091906401000000009004565b9050919050565b62000549816007620004136401000000000262002065179091906401000000009004565b8073ffffffffffffffffffffffffffffffffffffffff167fee1504a83b6d4a361f4c1dc78ab59bfa30d6a3b6612c403e86bb01ef2984295f60405160405180910390a250565b60008073ffffffffffffffffffffffffffffffffffffffff168273ffffffffffffffffffffffffffffffffffffffff1614151515620005cd57600080fd5b8260000160008373ffffffffffffffffffffffffffffffffffffffff1673ffffffffffffffffffffffffffffffffffffffff16815260200190815260200160002060009054906101000a900460ff16905092915050565b828054600181600116156101000203166002900490600052602060002090601f016020900481019282601f106200066757805160ff191683800117855562000698565b8280016001018555821562000698579182015b82811115620006975782518255916020019190600101906200067a565b5b509050620006a79190620006ab565b5090565b620006d091905b80821115620006cc576000816000905550600101620006b2565b5090565b90565b614bb380620006e36000396000f3fe6080604052600436106200019f576000357c0100000000000000000000000000000000000000000000000000000000900463ffffffff16806306fdde0314620001a4578063089587cd146200023a578063095ea7b3146200029457806310154bad146200030b57806318160ddd146200036057806323b872dd146200038e578063291d954914620004255780632e0f2625146200047a5780632ff2e9dc14620004ae578063313ce56714620004dc5780633950935114620005105780633af32abf14620005875780634c5a628c14620005f457806370a08231146200060e578063715018a614620006775780637362d9c814620006915780638da5cb5b14620006e65780638f32d59b146200074057806395d89b411462000772578063a457c2d71462000808578063a9059cbb146200087f578063bb5f747b14620008f6578063d6cd94731462000963578063dd62ed3e146200097d578063ddca3f431462000a06578063f0141d841462000a3c578063f19a0b541462000a70578063f2fde38b1462000ac5578063f9fecc9a1462000b1a578063fd922a421462000b85575b600080fd5b348015620001b157600080fd5b50620001bc62000bdf565b6040518080602001828103825283818151815260200191508051906020019080838360005b83811015620001fe578082015181840152602081019050620001e1565b50505050905090810190601f1680156200022c5780820380516001836020036101000a031916815260200191505b509250505060405180910390f35b3480156200024757600080fd5b506200025262000c85565b604051808273ffffffffffffffffffffffffffffffffffffffff1673ffffffffffffffffffffffffffffffffffffffff16815260200191505060405180910390f35b348015620002a157600080fd5b50620002f160048036036040811015620002ba57600080fd5b81019080803573ffffffffffffffffffffffffffffffffffffffff1690602001909291908035906020019092919050505062000caf565b604051808215151515815260200191505060405180910390f35b3480156200031857600080fd5b506200035e600480360360208110156200033157600080fd5b81019080803573ffffffffffffffffffffffffffffffffffffffff16906020019092919050505062000ddd565b005b3480156200036d57600080fd5b506200037862000e02565b6040518082815260200191505060405180910390f35b3480156200039b57600080fd5b506200040b60048036036060811015620003b457600080fd5b81019080803573ffffffffffffffffffffffffffffffffffffffff169060200190929190803573ffffffffffffffffffffffffffffffffffffffff1690602001909291908035906020019092919050505062000e0c565b604051808215151515815260200191505060405180910390f35b3480156200043257600080fd5b5062000478600480360360208110156200044b57600080fd5b81019080803573ffffffffffffffffffffffffffffffffffffffff16906020019092919050505062001018565b005b3480156200048757600080fd5b50620004926200103d565b604051808260ff1660ff16815260200191505060405180910390f35b348015620004bb57600080fd5b50620004c662001042565b6040518082815260200191505060405180910390f35b348015620004e957600080fd5b50620004f462001054565b604051808260ff1660ff16815260200191505060405180910390f35b3480156200051d57600080fd5b506200056d600480360360408110156200053657600080fd5b81019080803573ffffffffffffffffffffffffffffffffffffffff169060200190929190803590602001909291905050506200106b565b604051808215151515815260200191505060405180910390f35b3480156200059457600080fd5b50620005da60048036036020811015620005ad57600080fd5b81019080803573ffffffffffffffffffffffffffffffffffffffff169060200190929190505050620012a5565b604051808215151515815260200191505060405180910390f35b3480156200060157600080fd5b506200060c620012c4565b005b3480156200061b57600080fd5b5062000661600480360360208110156200063457600080fd5b81019080803573ffffffffffffffffffffffffffffffffffffffff169060200190929190505050620012d1565b6040518082815260200191505060405180910390f35b3480156200068457600080fd5b506200068f62001319565b005b3480156200069e57600080fd5b50620006e460048036036020811015620006b757600080fd5b81019080803573ffffffffffffffffffffffffffffffffffffffff169060200190929190505050620013f0565b005b348015620006f357600080fd5b50620006fe62001415565b604051808273ffffffffffffffffffffffffffffffffffffffff1673ffffffffffffffffffffffffffffffffffffffff16815260200191505060405180910390f35b3480156200074d57600080fd5b50620007586200143f565b604051808215151515815260200191505060405180910390f35b3480156200077f57600080fd5b506200078a62001497565b6040518080602001828103825283818151815260200191508051906020019080838360005b83811015620007cc578082015181840152602081019050620007af565b50505050905090810190601f168015620007fa5780820380516001836020036101000a031916815260200191505b509250505060405180910390f35b3480156200081557600080fd5b5062000865600480360360408110156200082e57600080fd5b81019080803573ffffffffffffffffffffffffffffffffffffffff169060200190929190803590602001909291905050506200153d565b604051808215151515815260200191505060405180910390f35b3480156200088c57600080fd5b50620008dc60048036036040811015620008a557600080fd5b81019080803573ffffffffffffffffffffffffffffffffffffffff1690602001909291908035906020019092919050505062001777565b604051808215151515815260200191505060405180910390f35b3480156200090357600080fd5b5062000949600480360360208110156200091c57600080fd5b81019080803573ffffffffffffffffffffffffffffffffffffffff16906020019092919050505062001790565b604051808215151515815260200191505060405180910390f35b3480156200097057600080fd5b506200097b620017af565b005b3480156200098a57600080fd5b50620009f060048036036040811015620009a357600080fd5b81019080803573ffffffffffffffffffffffffffffffffffffffff169060200190929190803573ffffffffffffffffffffffffffffffffffffffff169060200190929190505050620017bc565b6040518082815260200191505060405180910390f35b34801562000a1357600080fd5b5062000a1e62001843565b604051808261ffff1661ffff16815260200191505060405180910390f35b34801562000a4957600080fd5b5062000a5462001849565b604051808260ff1660ff16815260200191505060405180910390f35b34801562000a7d57600080fd5b5062000ac36004803603602081101562000a9657600080fd5b81019080803573ffffffffffffffffffffffffffffffffffffffff16906020019092919050505062001852565b005b34801562000ad257600080fd5b5062000b186004803603602081101562000aeb57600080fd5b81019080803573ffffffffffffffffffffffffffffffffffffffff169060200190929190505050620018ad565b005b34801562000b2757600080fd5b5062000b6b6004803603606081101562000b4057600080fd5b81019080803590602001909291908035906020019092919080359060200190929190505050620018d1565b604051808215151515815260200191505060405180910390f35b34801562000b9257600080fd5b5062000b9d62001ab9565b604051808273ffffffffffffffffffffffffffffffffffffffff1673ffffffffffffffffffffffffffffffffffffffff16815260200191505060405180910390f35b606060038054600181600116156101000203166002900480601f01602080910402602001604051908101604052809291908181526020018280546001816001161561010002031660029004801562000c7b5780601f1062000c4f5761010080835404028352916020019162000c7b565b820191906000526020600020905b81548152906001019060200180831162000c5d57829003601f168201915b5050505050905090565b6000600960009054906101000a900473ffffffffffffffffffffffffffffffffffffffff16905090565b60008073ffffffffffffffffffffffffffffffffffffffff168373ffffffffffffffffffffffffffffffffffffffff161415151562000ced57600080fd5b81600160003373ffffffffffffffffffffffffffffffffffffffff1673ffffffffffffffffffffffffffffffffffffffff16815260200190815260200160002060008573ffffffffffffffffffffffffffffffffffffffff1673ffffffffffffffffffffffffffffffffffffffff168152602001908152602001600020819055508273ffffffffffffffffffffffffffffffffffffffff163373ffffffffffffffffffffffffffffffffffffffff167f8c5be1e5ebec7d5bd14f71427d1e84f3dd0314c0f7b2291e5b200ac8c7c3b925846040518082815260200191505060405180910390a36001905092915050565b62000de83362001790565b151562000df457600080fd5b62000dff8162001adf565b50565b6000600254905090565b600062000e9f82600160008773ffffffffffffffffffffffffffffffffffffffff1673ffffffffffffffffffffffffffffffffffffffff16815260200190815260200160002060003373ffffffffffffffffffffffffffffffffffffffff1673ffffffffffffffffffffffffffffffffffffffff1681526020019081526020016000205462001b3b90919063ffffffff16565b600160008673ffffffffffffffffffffffffffffffffffffffff1673ffffffffffffffffffffffffffffffffffffffff16815260200190815260200160002060003373ffffffffffffffffffffffffffffffffffffffff1673ffffffffffffffffffffffffffffffffffffffff1681526020019081526020016000208190555062000f2c84848462001b5e565b3373ffffffffffffffffffffffffffffffffffffffff168473ffffffffffffffffffffffffffffffffffffffff167f8c5be1e5ebec7d5bd14f71427d1e84f3dd0314c0f7b2291e5b200ac8c7c3b925600160008873ffffffffffffffffffffffffffffffffffffffff1673ffffffffffffffffffffffffffffffffffffffff16815260200190815260200160002060003373ffffffffffffffffffffffffffffffffffffffff1673ffffffffffffffffffffffffffffffffffffffff168152602001908152602001600020546040518082815260200191505060405180910390a3600190509392505050565b620010233362001790565b15156200102f57600080fd5b6200103a8162001d2f565b50565b601281565b601260ff16600a0a6402540be4000281565b6000600560009054906101000a900460ff16905090565b60008073ffffffffffffffffffffffffffffffffffffffff168373ffffffffffffffffffffffffffffffffffffffff1614151515620010a957600080fd5b6200113a82600160003373ffffffffffffffffffffffffffffffffffffffff1673ffffffffffffffffffffffffffffffffffffffff16815260200190815260200160002060008673ffffffffffffffffffffffffffffffffffffffff1673ffffffffffffffffffffffffffffffffffffffff1681526020019081526020016000205462001d8b90919063ffffffff16565b600160003373ffffffffffffffffffffffffffffffffffffffff1673ffffffffffffffffffffffffffffffffffffffff16815260200190815260200160002060008573ffffffffffffffffffffffffffffffffffffffff1673ffffffffffffffffffffffffffffffffffffffff168152602001908152602001600020819055508273ffffffffffffffffffffffffffffffffffffffff163373ffffffffffffffffffffffffffffffffffffffff167f8c5be1e5ebec7d5bd14f71427d1e84f3dd0314c0f7b2291e5b200ac8c7c3b925600160003373ffffffffffffffffffffffffffffffffffffffff1673ffffffffffffffffffffffffffffffffffffffff16815260200190815260200160002060008773ffffffffffffffffffffffffffffffffffffffff1673ffffffffffffffffffffffffffffffffffffffff168152602001908152602001600020546040518082815260200191505060405180910390a36001905092915050565b6000620012bd82600762001dad90919063ffffffff16565b9050919050565b620012cf3362001e42565b565b60008060008373ffffffffffffffffffffffffffffffffffffffff1673ffffffffffffffffffffffffffffffffffffffff168152602001908152602001600020549050919050565b620013236200143f565b15156200132f57600080fd5b600073ffffffffffffffffffffffffffffffffffffffff16600860009054906101000a900473ffffffffffffffffffffffffffffffffffffffff1673ffffffffffffffffffffffffffffffffffffffff167f8be0079c531659141344cd1fd0a4f28419497f9722a3daafe3b4186f6b6457e060405160405180910390a36000600860006101000a81548173ffffffffffffffffffffffffffffffffffffffff021916908373ffffffffffffffffffffffffffffffffffffffff160217905550565b620013fb3362001790565b15156200140757600080fd5b620014128162001e9e565b50565b6000600860009054906101000a900473ffffffffffffffffffffffffffffffffffffffff16905090565b6000600860009054906101000a900473ffffffffffffffffffffffffffffffffffffffff1673ffffffffffffffffffffffffffffffffffffffff163373ffffffffffffffffffffffffffffffffffffffff1614905090565b606060048054600181600116156101000203166002900480601f016020809104026020016040519081016040528092919081815260200182805460018160011615610100020316600290048015620015335780601f10620015075761010080835404028352916020019162001533565b820191906000526020600020905b8154815290600101906020018083116200151557829003601f168201915b5050505050905090565b60008073ffffffffffffffffffffffffffffffffffffffff168373ffffffffffffffffffffffffffffffffffffffff16141515156200157b57600080fd5b6200160c82600160003373ffffffffffffffffffffffffffffffffffffffff1673ffffffffffffffffffffffffffffffffffffffff16815260200190815260200160002060008673ffffffffffffffffffffffffffffffffffffffff1673ffffffffffffffffffffffffffffffffffffffff1681526020019081526020016000205462001b3b90919063ffffffff16565b600160003373ffffffffffffffffffffffffffffffffffffffff1673ffffffffffffffffffffffffffffffffffffffff16815260200190815260200160002060008573ffffffffffffffffffffffffffffffffffffffff1673ffffffffffffffffffffffffffffffffffffffff168152602001908152602001600020819055508273ffffffffffffffffffffffffffffffffffffffff163373ffffffffffffffffffffffffffffffffffffffff167f8c5be1e5ebec7d5bd14f71427d1e84f3dd0314c0f7b2291e5b200ac8c7c3b925600160003373ffffffffffffffffffffffffffffffffffffffff1673ffffffffffffffffffffffffffffffffffffffff16815260200190815260200160002060008773ffffffffffffffffffffffffffffffffffffffff1673ffffffffffffffffffffffffffffffffffffffff168152602001908152602001600020546040518082815260200191505060405180910390a36001905092915050565b60006200178633848462001b5e565b6001905092915050565b6000620017a882600662001dad90919063ffffffff16565b9050919050565b620017ba3362001d2f565b565b6000600160008473ffffffffffffffffffffffffffffffffffffffff1673ffffffffffffffffffffffffffffffffffffffff16815260200190815260200160002060008373ffffffffffffffffffffffffffffffffffffffff1673ffffffffffffffffffffffffffffffffffffffff16815260200190815260200160002054905092915050565b6103e881565b60006012905090565b6200185d33620012a5565b15156200186957600080fd5b80600960006101000a81548173ffffffffffffffffffffffffffffffffffffffff021916908373ffffffffffffffffffffffffffffffffffffffff16021790555050565b620018b76200143f565b1515620018c357600080fd5b620018ce8162001efa565b50565b600083620018df33620012d1565b10151515620018ed57600080fd5b600062001920612710620019116103e861ffff168862001ff790919063ffffffff16565b6200203990919063ffffffff16565b905060008186039050600030338388886200193a620021cc565b808673ffffffffffffffffffffffffffffffffffffffff1673ffffffffffffffffffffffffffffffffffffffff1681526020018573ffffffffffffffffffffffffffffffffffffffff1673ffffffffffffffffffffffffffffffffffffffff16815260200184815260200183815260200182815260200195505050505050604051809103906000f080158015620019d5573d6000803e3d6000fd5b50905062001a06600960009054906101000a900473ffffffffffffffffffffffffffffffffffffffff168462001777565b5062001a13818362001777565b507f8ae111c34d2c04a708c524ba9a2a918eb96bb88c771f7dd204858ee30651cddb3382604051808373ffffffffffffffffffffffffffffffffffffffff1673ffffffffffffffffffffffffffffffffffffffff1681526020018273ffffffffffffffffffffffffffffffffffffffff1673ffffffffffffffffffffffffffffffffffffffff1681526020019250505060405180910390a1600193505050509392505050565b600960009054906101000a900473ffffffffffffffffffffffffffffffffffffffff1681565b62001af58160076200206590919063ffffffff16565b8073ffffffffffffffffffffffffffffffffffffffff167fee1504a83b6d4a361f4c1dc78ab59bfa30d6a3b6612c403e86bb01ef2984295f60405160405180910390a250565b600082821115151562001b4d57600080fd5b600082840390508091505092915050565b600073ffffffffffffffffffffffffffffffffffffffff168273ffffffffffffffffffffffffffffffffffffffff161415151562001b9b57600080fd5b62001bee816000808673ffffffffffffffffffffffffffffffffffffffff1673ffffffffffffffffffffffffffffffffffffffff1681526020019081526020016000205462001b3b90919063ffffffff16565b6000808573ffffffffffffffffffffffffffffffffffffffff1673ffffffffffffffffffffffffffffffffffffffff1681526020019081526020016000208190555062001c83816000808573ffffffffffffffffffffffffffffffffffffffff1673ffffffffffffffffffffffffffffffffffffffff1681526020019081526020016000205462001d8b90919063ffffffff16565b6000808473ffffffffffffffffffffffffffffffffffffffff1673ffffffffffffffffffffffffffffffffffffffff168152602001908152602001600020819055508173ffffffffffffffffffffffffffffffffffffffff168373ffffffffffffffffffffffffffffffffffffffff167fddf252ad1be2c89b69c2b068fc378daa952ba7f163c4a11628f55a4df523b3ef836040518082815260200191505060405180910390a3505050565b62001d458160076200211990919063ffffffff16565b8073ffffffffffffffffffffffffffffffffffffffff167f270d9b30cf5b0793bbfd54c9d5b94aeb49462b8148399000265144a8722da6b660405160405180910390a250565b600080828401905083811015151562001da357600080fd5b8091505092915050565b60008073ffffffffffffffffffffffffffffffffffffffff168273ffffffffffffffffffffffffffffffffffffffff161415151562001deb57600080fd5b8260000160008373ffffffffffffffffffffffffffffffffffffffff1673ffffffffffffffffffffffffffffffffffffffff16815260200190815260200160002060009054906101000a900460ff16905092915050565b62001e588160066200211990919063ffffffff16565b8073ffffffffffffffffffffffffffffffffffffffff167f0a8eb35e5ca14b3d6f28e4abf2f128dbab231a58b56e89beb5d636115001e16560405160405180910390a250565b62001eb48160066200206590919063ffffffff16565b8073ffffffffffffffffffffffffffffffffffffffff167f22380c05984257a1cb900161c713dd71d39e74820f1aea43bd3f1bdd2096129960405160405180910390a250565b600073ffffffffffffffffffffffffffffffffffffffff168173ffffffffffffffffffffffffffffffffffffffff161415151562001f3757600080fd5b8073ffffffffffffffffffffffffffffffffffffffff16600860009054906101000a900473ffffffffffffffffffffffffffffffffffffffff1673ffffffffffffffffffffffffffffffffffffffff167f8be0079c531659141344cd1fd0a4f28419497f9722a3daafe3b4186f6b6457e060405160405180910390a380600860006101000a81548173ffffffffffffffffffffffffffffffffffffffff021916908373ffffffffffffffffffffffffffffffffffffffff16021790555050565b6000808314156200200c576000905062002033565b600082840290508284828115156200202057fe5b041415156200202e57600080fd5b809150505b92915050565b600080821115156200204a57600080fd5b600082848115156200205857fe5b0490508091505092915050565b600073ffffffffffffffffffffffffffffffffffffffff168173ffffffffffffffffffffffffffffffffffffffff1614151515620020a257600080fd5b620020ae828262001dad565b151515620020bb57600080fd5b60018260000160008373ffffffffffffffffffffffffffffffffffffffff1673ffffffffffffffffffffffffffffffffffffffff16815260200190815260200160002060006101000a81548160ff0219169083151502179055505050565b600073ffffffffffffffffffffffffffffffffffffffff168173ffffffffffffffffffffffffffffffffffffffff16141515156200215657600080fd5b62002162828262001dad565b15156200216e57600080fd5b60008260000160008373ffffffffffffffffffffffffffffffffffffffff1673ffffffffffffffffffffffffffffffffffffffff16815260200190815260200160002060006101000a81548160ff0219169083151502179055505050565b6040516129aa80620021de8339019056fe6080604052612710600260146101000a81548161ffff021916908361ffff160217905550612710600260166101000a81548161ffff021916908361ffff160217905550612710600260186101000a81548161ffff021916908361ffff160217905550600a60045560006005556000600a556000600b556000600c556000600d60006101000a81548160ff021916908315150217905550348015620000a257600080fd5b5060405160a080620029aa833981018060405260a0811015620000c457600080fd5b810190808051906020019092919080519060200190929190805190602001909291908051906020019092919080519060200190929190505050336000806101000a81548173ffffffffffffffffffffffffffffffffffffffff021916908373ffffffffffffffffffffffffffffffffffffffff1602179055506000809054906101000a900473ffffffffffffffffffffffffffffffffffffffff1673ffffffffffffffffffffffffffffffffffffffff16600073ffffffffffffffffffffffffffffffffffffffff167f8be0079c531659141344cd1fd0a4f28419497f9722a3daafe3b4186f6b6457e060405160405180910390a383600260006101000a81548173ffffffffffffffffffffffffffffffffffffffff021916908373ffffffffffffffffffffffffffffffffffffffff16021790555062000214846200045b640100000000026401000000009004565b84600160006101000a81548173ffffffffffffffffffffffffffffffffffffffff021916908373ffffffffffffffffffffffffffffffffffffffff1602179055508260038190555081600681905550806005819055506000600781905550600062000317620002c3600260169054906101000a900461ffff1661ffff16600260189054906101000a900461ffff1661ffff166200049d6401000000000262002115179091906401000000009004565b620002fa600260169054906101000a900461ffff1661ffff1687620004bf6401000000000262001671179091906401000000009004565b62000501640100000000026200214d179091906401000000009004565b905060006200033e82866200052d6401000000000262002177179091906401000000009004565b905062000363848362000501640100000000026200214d179091906401000000009004565b600881905550620003ae620003908486620004bf6401000000000262001671179091906401000000009004565b8262000501640100000000026200214d179091906401000000009004565b600981905550620003f0620003db8584620005506401000000000262002257179091906401000000009004565b62000577640100000000026401000000009004565b6200044e620004396200041b8587620004bf6401000000000262001671179091906401000000009004565b83620005506401000000000262002257179091906401000000009004565b62000577640100000000026401000000009004565b50505050505050620006f2565b62000474620005a0640100000000026401000000009004565b15156200048057600080fd5b6200049a81620005f7640100000000026401000000009004565b50565b6000808284019050838110151515620004b557600080fd5b8091505092915050565b600080831415620004d45760009050620004fb565b60008284029050828482811515620004e857fe5b04141515620004f657600080fd5b809150505b92915050565b600080821115156200051257600080fd5b600082848115156200052057fe5b0490508091505092915050565b60008282111515156200053f57600080fd5b600082840390508091505092915050565b60008082141515156200056257600080fd5b81838115156200056e57fe5b06905092915050565b6200059c81600c546200049d6401000000000262002115179091906401000000009004565b5050565b60008060009054906101000a900473ffffffffffffffffffffffffffffffffffffffff1673ffffffffffffffffffffffffffffffffffffffff163373ffffffffffffffffffffffffffffffffffffffff1614905090565b600073ffffffffffffffffffffffffffffffffffffffff168173ffffffffffffffffffffffffffffffffffffffff16141515156200063457600080fd5b8073ffffffffffffffffffffffffffffffffffffffff166000809054906101000a900473ffffffffffffffffffffffffffffffffffffffff1673ffffffffffffffffffffffffffffffffffffffff167f8be0079c531659141344cd1fd0a4f28419497f9722a3daafe3b4186f6b6457e060405160405180910390a3806000806101000a81548173ffffffffffffffffffffffffffffffffffffffff021916908373ffffffffffffffffffffffffffffffffffffffff16021790555050565b6122a880620007026000396000f3fe6080604052600436106100fc576000357c0100000000000000000000000000000000000000000000000000000000900463ffffffff16806316dd1f691461010b578063355274ea14610169578063505678ac14610194578063715018a6146101db57806389af8ae9146101f25780638da5cb5b146103055780638f32d59b1461035c5780639679dd7d1461038b57806396f80c5c146103b6578063ae55c8881461043c578063c139e64c146105be578063c257e8831461067c578063c650e738146106a7578063dc49be62146106d2578063f2fde38b146106fd578063f3e9371f1461074e578063f7407b4a14610779578063fc0c546a146107a4575b34801561010857600080fd5b50005b34801561011757600080fd5b506101206107fb565b604051808373ffffffffffffffffffffffffffffffffffffffff1673ffffffffffffffffffffffffffffffffffffffff1681526020018281526020019250505060405180910390f35b34801561017557600080fd5b5061017e610831565b6040518082815260200191505060405180910390f35b3480156101a057600080fd5b506101a961083b565b604051808681526020018581526020018481526020018381526020018281526020019550505050505060405180910390f35b3480156101e757600080fd5b506101f0610863565b005b3480156101fe57600080fd5b50610303600480360360a081101561021557600080fd5b810190808035906020019064010000000081111561023257600080fd5b82018360208201111561024457600080fd5b8035906020019184600183028401116401000000008311171561026657600080fd5b909192939192939080359060200190929190803561ffff169060200190929190803573ffffffffffffffffffffffffffffffffffffffff169060200190929190803590602001906401000000008111156102bf57600080fd5b8201836020820111156102d157600080fd5b803590602001918460018302840111640100000000831117156102f357600080fd5b9091929391929390505050610935565b005b34801561031157600080fd5b5061031a610bc1565b604051808273ffffffffffffffffffffffffffffffffffffffff1673ffffffffffffffffffffffffffffffffffffffff16815260200191505060405180910390f35b34801561036857600080fd5b50610371610bea565b604051808215151515815260200191505060405180910390f35b34801561039757600080fd5b506103a0610c41565b6040518082815260200191505060405180910390f35b3480156103c257600080fd5b5061043a600480360360208110156103d957600080fd5b81019080803590602001906401000000008111156103f657600080fd5b82018360208201111561040857600080fd5b8035906020019184600183028401116401000000008311171561042a57600080fd5b9091929391929390505050610d42565b005b34801561044857600080fd5b506105026004803603602081101561045f57600080fd5b810190808035906020019064010000000081111561047c57600080fd5b82018360208201111561048e57600080fd5b803590602001918460018302840111640100000000831117156104b057600080fd5b91908080601f016020809104026020016040519081016040528093929190818152602001838380828437600081840152601f19601f820116905080830192505050505050509192919290505050611074565b60405180806020018581526020018481526020018373ffffffffffffffffffffffffffffffffffffffff1673ffffffffffffffffffffffffffffffffffffffff168152602001828103825286818151815260200191508051906020019080838360005b83811015610580578082015181840152602081019050610565565b50505050905090810190601f1680156105ad5780820380516001836020036101000a031916815260200191505b509550505050505060405180910390f35b3480156105ca57600080fd5b5061067a600480360360808110156105e157600080fd5b81019080803590602001906401000000008111156105fe57600080fd5b82018360208201111561061057600080fd5b8035906020019184600183028401116401000000008311171561063257600080fd5b909192939192939080359060200190929190803561ffff169060200190929190803573ffffffffffffffffffffffffffffffffffffffff1690602001909291905050506113ba565b005b34801561068857600080fd5b50610691611587565b6040518082815260200191505060405180910390f35b3480156106b357600080fd5b506106bc611591565b6040518082815260200191505060405180910390f35b3480156106de57600080fd5b506106e761160a565b6040518082815260200191505060405180910390f35b34801561070957600080fd5b5061074c6004803603602081101561072057600080fd5b81019080803573ffffffffffffffffffffffffffffffffffffffff169060200190929190505050611614565b005b34801561075a57600080fd5b50610763611633565b6040518082815260200191505060405180910390f35b34801561078557600080fd5b5061078e61163d565b6040518082815260200191505060405180910390f35b3480156107b057600080fd5b506107b9611647565b604051808273ffffffffffffffffffffffffffffffffffffffff1673ffffffffffffffffffffffffffffffffffffffff16815260200191505060405180910390f35b600080600260009054906101000a900473ffffffffffffffffffffffffffffffffffffffff16610829610c41565b915091509091565b6000600354905090565b6000806000806000600354600854600654600754600c54945094509450945094509091929394565b61086b610bea565b151561087657600080fd5b600073ffffffffffffffffffffffffffffffffffffffff166000809054906101000a900473ffffffffffffffffffffffffffffffffffffffff1673ffffffffffffffffffffffffffffffffffffffff167f8be0079c531659141344cd1fd0a4f28419497f9722a3daafe3b4186f6b6457e060405160405180910390a360008060006101000a81548173ffffffffffffffffffffffffffffffffffffffff021916908373ffffffffffffffffffffffffffffffffffffffff160217905550565b61093d611647565b73ffffffffffffffffffffffffffffffffffffffff16633af32abf336040518263ffffffff167c0100000000000000000000000000000000000000000000000000000000028152600401808273ffffffffffffffffffffffffffffffffffffffff1673ffffffffffffffffffffffffffffffffffffffff16815260200191505060206040518083038186803b1580156109d557600080fd5b505afa1580156109e9573d6000803e3d6000fd5b505050506040513d60208110156109ff57600080fd5b81019080805190602001909291905050501515610a1b57600080fd5b6000610a328660085461167190919063ffffffff16565b9050610a8383838080601f016020809104026020016040519081016040528093929190818152602001838380828437600081840152601f19601f8201169050808301925050505050505087876116af565b610ad288888080601f016020809104026020016040519081016040528093929190818152602001838380828437600081840152601f19601f82011690508083019250505050505050858361172a565b610b6788888080601f016020809104026020016040519081016040528093929190818152602001838380828437600081840152601f19601f8201169050808301925050505050505087878787878080601f016020809104026020016040519081016040528093929190818152602001838380828437600081840152601f19601f820116905080830192505050505050506117a5565b610bb788888080601f016020809104026020016040519081016040528093929190818152602001838380828437600081840152601f19601f82011690508083019250505050505050868684611a7c565b5050505050505050565b60008060009054906101000a900473ffffffffffffffffffffffffffffffffffffffff16905090565b60008060009054906101000a900473ffffffffffffffffffffffffffffffffffffffff1673ffffffffffffffffffffffffffffffffffffffff163373ffffffffffffffffffffffffffffffffffffffff1614905090565b6000600c54600160009054906101000a900473ffffffffffffffffffffffffffffffffffffffff1673ffffffffffffffffffffffffffffffffffffffff166370a08231306040518263ffffffff167c0100000000000000000000000000000000000000000000000000000000028152600401808273ffffffffffffffffffffffffffffffffffffffff1673ffffffffffffffffffffffffffffffffffffffff16815260200191505060206040518083038186803b158015610d0157600080fd5b505afa158015610d15573d6000803e3d6000fd5b505050506040513d6020811015610d2b57600080fd5b810190808051906020019092919050505003905090565b610d4a611647565b73ffffffffffffffffffffffffffffffffffffffff16633af32abf336040518263ffffffff167c0100000000000000000000000000000000000000000000000000000000028152600401808273ffffffffffffffffffffffffffffffffffffffff1673ffffffffffffffffffffffffffffffffffffffff16815260200191505060206040518083038186803b158015610de257600080fd5b505afa158015610df6573d6000803e3d6000fd5b505050506040513d6020811015610e0c57600080fd5b81019080805190602001909291905050501515610e2857600080fd5b610eeb82828080601f016020809104026020016040519081016040528093929190818152602001838380828437600081840152601f19601f82011690508083019250505050505050600e8484604051808383808284378083019250505092505050908152602001604051809103902060000160009054906101000a900473ffffffffffffffffffffffffffffffffffffffff16600e8585604051808383808284378083019250505092505050908152602001604051809103902060010154611bff565b610fae82828080601f016020809104026020016040519081016040528093929190818152602001838380828437600081840152601f19601f82011690508083019250505050505050600e8484604051808383808284378083019250505092505050908152602001604051809103902060000160009054906101000a900473ffffffffffffffffffffffffffffffffffffffff16600e8585604051808383808284378083019250505092505050908152602001604051809103902060010154611dcd565b600e8282604051808383808284378083019250505092505050908152602001604051809103902060000160009054906101000a900473ffffffffffffffffffffffffffffffffffffffff1673ffffffffffffffffffffffffffffffffffffffff167f24a756d1a2c8f2c24ad07b6b6c6a46090bce16d2523224ca3aae963753b3622c600e84846040518083838082843780830192505050925050509081526020016040518091039020600101546040518082815260200191505060405180910390a25050565b60606000806000611083610bea565b151561108e57600080fd5b6000600f866040518082805190602001908083835b6020831015156110c857805182526020820191506020810190506020830392506110a3565b6001836020036101000a038019825116818451168082178552505050505050905001915050908152602001604051809103902060000180546001816001161561010002031660029004905011151561111f57600080fd5b600f856040518082805190602001908083835b6020831015156111575780518252602082019150602081019050602083039250611132565b6001836020036101000a0380198251168184511680821785525050505050509050019150509081526020016040518091039020600001600f866040518082805190602001908083835b6020831015156111c557805182526020820191506020810190506020830392506111a0565b6001836020036101000a038019825116818451168082178552505050505050905001915050908152602001604051809103902060010154600f876040518082805190602001908083835b602083101515611234578051825260208201915060208101905060208303925061120f565b6001836020036101000a038019825116818451168082178552505050505050905001915050908152602001604051809103902060020160149054906101000a900461ffff16600f886040518082805190602001908083835b6020831015156112b1578051825260208201915060208101905060208303925061128c565b6001836020036101000a038019825116818451168082178552505050505050905001915050908152602001604051809103902060020160009054906101000a900473ffffffffffffffffffffffffffffffffffffffff16838054600181600116156101000203166002900480601f01602080910402602001604051908101604052809291908181526020018280546001816001161561010002031660029004801561139d5780601f106113725761010080835404028352916020019161139d565b820191906000526020600020905b81548152906001019060200180831161138057829003601f168201915b505050505093508161ffff16915093509350935093509193509193565b6113c2611647565b73ffffffffffffffffffffffffffffffffffffffff16633af32abf336040518263ffffffff167c0100000000000000000000000000000000000000000000000000000000028152600401808273ffffffffffffffffffffffffffffffffffffffff1673ffffffffffffffffffffffffffffffffffffffff16815260200191505060206040518083038186803b15801561145a57600080fd5b505afa15801561146e573d6000803e3d6000fd5b505050506040513d602081101561148457600080fd5b810190808051906020019092919050505015156114a057600080fd5b60006114b78460095461167190919063ffffffff16565b9050600260149054906101000a900461ffff1661ffff168361ffff16111515156114e057600080fd5b61152f86868080601f016020809104026020016040519081016040528093929190818152602001838380828437600081840152601f19601f82011690508083019250505050505050838361172a565b61157f86868080601f016020809104026020016040519081016040528093929190818152602001838380828437600081840152601f19601f82011690508083019250505050505050848484611a7c565b505050505050565b6000600854905090565b600061159b610bea565b15156115a657600080fd5b600260009054906101000a900473ffffffffffffffffffffffffffffffffffffffff1673ffffffffffffffffffffffffffffffffffffffff163373ffffffffffffffffffffffffffffffffffffffff1614151561160257600080fd5b600c54905090565b6000600654905090565b61161c610bea565b151561162757600080fd5b6116308161201b565b50565b6000600a54905090565b6000600754905090565b6000600160009054906101000a900473ffffffffffffffffffffffffffffffffffffffff16905090565b60008083141561168457600090506116a9565b6000828402905082848281151561169757fe5b041415156116a457600080fd5b809150505b92915050565b600260149054906101000a900461ffff1661ffff168161ffff16111515156116d657600080fd5b600083511115156116e657600080fd5b600082141515156116f657600080fd5b6116fe61160a565b6117188361170a61163d565b61211590919063ffffffff16565b1115151561172557600080fd5b505050565b600073ffffffffffffffffffffffffffffffffffffffff168273ffffffffffffffffffffffffffffffffffffffff161415151561176657600080fd5b6000835111151561177657600080fd5b8061177f610c41565b1015151561178c57600080fd5b611794612136565b1515156117a057600080fd5b505050565b83600f866040518082805190602001908083835b6020831015156117de57805182526020820191506020810190506020830392506117b9565b6001836020036101000a03801982511681845116808217855250505050505090500191505090815260200160405180910390206001018190555082600f866040518082805190602001908083835b602083101515611851578051825260208201915060208101905060208303925061182c565b6001836020036101000a038019825116818451168082178552505050505050905001915050908152602001604051809103902060020160146101000a81548161ffff021916908361ffff16021790555081600f866040518082805190602001908083835b6020831015156118da57805182526020820191506020810190506020830392506118b5565b6001836020036101000a038019825116818451168082178552505050505050905001915050908152602001604051809103902060020160006101000a81548173ffffffffffffffffffffffffffffffffffffffff021916908373ffffffffffffffffffffffffffffffffffffffff16021790555080600f866040518082805190602001908083835b6020831015156119875780518252602082019150602081019050602083039250611962565b6001836020036101000a038019825116818451168082178552505050505050905001915050908152602001604051809103902060000190805190602001906119d09291906121b2565b506119e68460075461211590919063ffffffff16565b6007819055507ff3ed3d6eeb73afbb562f79fcf662eaaa3e17ee90a0be461d0970ea4e9b4ac87884611a1661163d565b611a1e61160a565b85604051808581526020018481526020018381526020018273ffffffffffffffffffffffffffffffffffffffff1673ffffffffffffffffffffffffffffffffffffffff16815260200194505050505060405180910390a15050505050565b6000611abb600260149054906101000a900461ffff1661ffff16611aad8661ffff168561167190919063ffffffff16565b61214d90919063ffffffff16565b905082600e866040518082805190602001908083835b602083101515611af65780518252602082019150602081019050602083039250611ad1565b6001836020036101000a038019825116818451168082178552505050505050905001915050908152602001604051809103902060000160006101000a81548173ffffffffffffffffffffffffffffffffffffffff021916908373ffffffffffffffffffffffffffffffffffffffff16021790555080600e866040518082805190602001908083835b602083101515611ba35780518252602082019150602081019050602083039250611b7e565b6001836020036101000a038019825116818451168082178552505050505050905001915050908152602001604051809103902060010181905550611bf8611bf3828461217790919063ffffffff16565b612199565b5050505050565b600073ffffffffffffffffffffffffffffffffffffffff168273ffffffffffffffffffffffffffffffffffffffff1614151515611c3b57600080fd5b60008114151515611c4b57600080fd5b60008351111515611c5b57600080fd5b600115156010846040518082805190602001908083835b602083101515611c975780518252602082019150602081019050602083039250611c72565b6001836020036101000a038019825116818451168082178552505050505050905001915050908152602001604051809103902060010160009054906101000a900460ff16151514151515611cea57600080fd5b8173ffffffffffffffffffffffffffffffffffffffff16600e846040518082805190602001908083835b602083101515611d395780518252602082019150602081019050602083039250611d14565b6001836020036101000a038019825116818451168082178552505050505050905001915050908152602001604051809103902060000160009054906101000a900473ffffffffffffffffffffffffffffffffffffffff1673ffffffffffffffffffffffffffffffffffffffff16141515611db257600080fd5b80611dbb610c41565b10151515611dc857600080fd5b505050565b806010846040518082805190602001908083835b602083101515611e065780518252602082019150602081019050602083039250611de1565b6001836020036101000a03801982511681845116808217855250505050505090500191505090815260200160405180910390206000018190555060016010846040518082805190602001908083835b602083101515611e7a5780518252602082019150602081019050602083039250611e55565b6001836020036101000a038019825116818451168082178552505050505050905001915050908152602001604051809103902060010160006101000a81548160ff021916908315150217905550600160009054906101000a900473ffffffffffffffffffffffffffffffffffffffff1673ffffffffffffffffffffffffffffffffffffffff1663a9059cbb83836040518363ffffffff167c0100000000000000000000000000000000000000000000000000000000028152600401808373ffffffffffffffffffffffffffffffffffffffff1673ffffffffffffffffffffffffffffffffffffffff16815260200182815260200192505050602060405180830381600087803b158015611f8c57600080fd5b505af1158015611fa0573d6000803e3d6000fd5b505050506040513d6020811015611fb657600080fd5b8101908080519060200190929190505050508173ffffffffffffffffffffffffffffffffffffffff167f24a756d1a2c8f2c24ad07b6b6c6a46090bce16d2523224ca3aae963753b3622c826040518082815260200191505060405180910390a2505050565b600073ffffffffffffffffffffffffffffffffffffffff168173ffffffffffffffffffffffffffffffffffffffff161415151561205757600080fd5b8073ffffffffffffffffffffffffffffffffffffffff166000809054906101000a900473ffffffffffffffffffffffffffffffffffffffff1673ffffffffffffffffffffffffffffffffffffffff167f8be0079c531659141344cd1fd0a4f28419497f9722a3daafe3b4186f6b6457e060405160405180910390a3806000806101000a81548173ffffffffffffffffffffffffffffffffffffffff021916908373ffffffffffffffffffffffffffffffffffffffff16021790555050565b600080828401905083811015151561212c57600080fd5b8091505092915050565b6000600d60009054906101000a900460ff16905090565b6000808211151561215d57600080fd5b6000828481151561216a57fe5b0490508091505092915050565b600082821115151561218857600080fd5b600082840390508091505092915050565b6121ae81600c5461211590919063ffffffff16565b5050565b828054600181600116156101000203166002900490600052602060002090601f016020900481019282601f106121f357805160ff1916838001178555612221565b82800160010185558215612221579182015b82811115612220578251825591602001919060010190612205565b5b50905061222e9190612232565b5090565b61225491905b80821115612250576000816000905550600101612238565b5090565b90565b600080821415151561226857600080fd5b818381151561227357fe5b0690509291505056fea165627a7a723058207c080886f86e10aaad02a427a461b16ee4f0ff049ca2467708366bbbf074bd600029a165627a7a72305820a5f2284a06243fb155d2a720cbf8fa25784f3c9f4b7b166c977f07b2ce1d71a80029",
  "source": "pragma solidity ^0.5.0;\n\nimport \"openzeppelin-solidity/contracts/token/ERC20/ERC20.sol\";\nimport \"openzeppelin-solidity/contracts/token/ERC20/ERC20Detailed.sol\";\nimport \"openzeppelin-solidity/contracts/access/roles/WhitelistedRole.sol\";\n//import \"openzeppelin-solidity/contracts/ownership/Ownable.sol\";\nimport \"./NaraMalsamiTokenTrade.sol\";\n\n\ncontract NaraMalsamiToken is ERC20, ERC20Detailed, WhitelistedRole, Ownable{\n    uint8 public constant DECIMALS = 18;\n    uint256 public constant INITIAL_SUPPLY = 10000000000 * (10 ** uint256(DECIMALS));\n    uint16 public constant fee = 1000; // 10000 = 100%\n\n    address public server;\n\n    event tradeMade(address maker, address tradeAddress);\n\n    constructor() public ERC20Detailed(\"NaraMalsamiToken\", \"NMT\", DECIMALS)\n    {\n        _mint(msg.sender, INITIAL_SUPPLY);\n        addWhitelisted(msg.sender);\n    }\n\n    function setServer(address _server) public onlyWhitelisted {\n        server = _server;\n    }\n\n    function getServer() public view returns(address){return server;}\n\n    function getDecimals() public pure returns (uint8){\n        return DECIMALS;\n    }\n\n    function newTrade(uint256 cap, uint256 dataNum, uint256 verifierNum) public returns(bool){\n        require(balanceOf(msg.sender) >= cap);\n        uint256 feeValue = cap.mul(fee).div(10000);\n        uint256 leftValue = cap - feeValue;\n\n        NaraMalsamiTokenTrade NMTT = new NaraMalsamiTokenTrade(this, msg.sender, leftValue, dataNum, verifierNum);\n        transfer(server, feeValue);\n        transfer(address(NMTT), leftValue);\n\n\n        emit tradeMade(msg.sender, address(NMTT));\n        return true;\n    }\n\n\n}",
  "sourcePath": "C:\\GitHub\\NMT-Solidity\\contracts\\NaraMalsamiToken.sol",
  "compiler": {
    "name": "solc",
    "version": "0.5.0+commit.1d4f565a.Emscripten.clang"
  },
  "schemaVersion": "3.0.3",
  "updatedAt": "2019-05-17T04:27:47.021Z",
  "devdoc": {
    "methods": {
      "allowance(address,address)": {
        "details": "Function to check the amount of tokens that an owner allowed to a spender.\r",
        "params": {
          "owner": "address The address which owns the funds.\r",
          "spender": "address The address which will spend the funds.\r"
        },
        "return": "A uint256 specifying the amount of tokens still available for the spender.\r"
      },
      "approve(address,uint256)": {
        "details": "Approve the passed address to spend the specified amount of tokens on behalf of msg.sender.\r Beware that changing an allowance with this method brings the risk that someone may use both the old\r and the new allowance by unfortunate transaction ordering. One possible solution to mitigate this\r race condition is to first reduce the spender's allowance to 0 and set the desired value afterwards:\r https://github.com/ethereum/EIPs/issues/20#issuecomment-263524729\r",
        "params": {
          "spender": "The address which will spend the funds.\r",
          "value": "The amount of tokens to be spent.\r"
        }
      },
      "balanceOf(address)": {
        "details": "Gets the balance of the specified address.\r",
        "params": {
          "owner": "The address to query the balance of.\r"
        },
        "return": "An uint256 representing the amount owned by the passed address.\r"
      },
      "decimals()": {
        "return": "the number of decimals of the token.\r"
      },
      "decreaseAllowance(address,uint256)": {
        "details": "Decrease the amount of tokens that an owner allowed to a spender.\r approve should be called when allowed_[_spender] == 0. To decrement\r allowed value is better to use this function to avoid 2 calls (and wait until\r the first transaction is mined)\r From MonolithDAO Token.sol\r Emits an Approval event.\r",
        "params": {
          "spender": "The address which will spend the funds.\r",
          "subtractedValue": "The amount of tokens to decrease the allowance by.\r"
        }
      },
      "increaseAllowance(address,uint256)": {
        "details": "Increase the amount of tokens that an owner allowed to a spender.\r approve should be called when allowed_[_spender] == 0. To increment\r allowed value is better to use this function to avoid 2 calls (and wait until\r the first transaction is mined)\r From MonolithDAO Token.sol\r Emits an Approval event.\r",
        "params": {
          "addedValue": "The amount of tokens to increase the allowance by.\r",
          "spender": "The address which will spend the funds.\r"
        }
      },
      "isOwner()": {
        "return": "true if `msg.sender` is the owner of the contract.\r"
      },
      "name()": {
        "return": "the name of the token.\r"
      },
      "owner()": {
        "return": "the address of the owner.\r"
      },
      "renounceOwnership()": {
        "details": "Allows the current owner to relinquish control of the contract.\r"
      },
      "symbol()": {
        "return": "the symbol of the token.\r"
      },
      "totalSupply()": {
        "details": "Total number of tokens in existence\r"
      },
      "transfer(address,uint256)": {
        "details": "Transfer token for a specified address\r",
        "params": {
          "to": "The address to transfer to.\r",
          "value": "The amount to be transferred.\r"
        }
      },
      "transferFrom(address,address,uint256)": {
        "details": "Transfer tokens from one address to another.\r Note that while this function emits an Approval event, this is not required as per the specification,\r and other compliant implementations may not emit the event.\r",
        "params": {
          "from": "address The address which you want to send tokens from\r",
          "to": "address The address which you want to transfer to\r",
          "value": "uint256 the amount of tokens to be transferred\r"
        }
      },
      "transferOwnership(address)": {
        "details": "Allows the current owner to transfer control of the contract to a newOwner.\r",
        "params": {
          "newOwner": "The address to transfer ownership to.\r"
        }
      }
    }
  },
  "userdoc": {
    "methods": {
      "renounceOwnership()": {
        "notice": "Renouncing to ownership will leave the contract without an owner.\r It will not be possible to call the functions with the `onlyOwner`\r modifier anymore.\r"
      }
    }
  }
}