{
  "contractName": "Test",
  "abi": [
    {
      "inputs": [
        {
          "name": "testNum",
          "type": "uint256"
        }
      ],
      "payable": false,
      "stateMutability": "nonpayable",
      "type": "constructor"
    },
    {
      "constant": false,
      "inputs": [],
      "name": "getTestNum",
      "outputs": [
        {
          "name": "",
          "type": "uint256"
        }
      ],
      "payable": false,
      "stateMutability": "nonpayable",
      "type": "function"
    }
  ],
  "bytecode": "0x608060405234801561001057600080fd5b506040516020806100f88339810180604052602081101561003057600080fd5b8101908080519060200190929190505050806000819055505060a1806100576000396000f3fe608060405260043610603f576000357c0100000000000000000000000000000000000000000000000000000000900463ffffffff16806350566375146044575b600080fd5b348015604f57600080fd5b506056606c565b6040518082815260200191505060405180910390f35b6000805490509056fea165627a7a7230582097d98df21a84628a57afcbeb04747d2a164f74637449bb946a5d69051dccc2160029",
  "source": "pragma solidity ^0.5.0;\n\nimport \"openzeppelin-solidity/contracts/token/ERC20/ERC20.sol\";\nimport \"openzeppelin-solidity/contracts/token/ERC20/ERC20Detailed.sol\";\nimport \"./NaraMalsamiTokenTrade.sol\";\n\n\ncontract NaraMalsamiToken is ERC20, ERC20Detailed{\n    uint8 public constant DECIMALS = 18;\n    uint256 public constant INITIAL_SUPPLY = 100000000 * (10 ** uint256(DECIMALS));\n\n    constructor() public\n   ERC20Detailed(\"NaraMalsamiToken\", \"NMT\", DECIMALS)\n    {\n        _mint(msg.sender, INITIAL_SUPPLY);\n    }\n\n\n    function newTrade (\n        //IERC20 token,\n        //address payable wallet,\n        uint256 cap,\n        uint256 weiPerData\n    ) public returns(Test){\n        //NaraMalsamiTokenTrade _newTrade = new NaraMalsamiTokenTrade(token, cap, weiPerData);\n        //NaraMalsamiTokenTrade _newTrade = new NaraMalsamiTokenTrade(10000000, 10000);\n        //return _newTrade;\n        Test test = new Test(cap);\n        return test;\n    }\n\n\n}\n\ncontract Test{\n    uint256 private _testNum;\n\n    constructor(uint256 testNum) public{\n        _testNum = testNum;\n    }\n\n    function getTestNum() public returns(uint256){\n        return _testNum;\n    }\n\n}\n\n\n",
  "sourcePath": "/Users/morris/Documents/NMT/contracts/NaraMalsamiToken.sol",
  "compiler": {
    "name": "solc",
    "version": "0.5.0+commit.1d4f565a.Emscripten.clang"
  },
  "schemaVersion": "3.0.1",
  "updatedAt": "2019-02-25T08:47:29.724Z",
  "devdoc": {
    "methods": {}
  },
  "userdoc": {
    "methods": {}
  }
}