{
  "contractName": "NaraMalsamiTokenCrowdsale",
  "abi": [
    {
      "constant": true,
      "inputs": [],
      "name": "hasClosed",
      "outputs": [
        {
          "name": "",
          "type": "bool"
        }
      ],
      "payable": false,
      "stateMutability": "view",
      "type": "function"
    },
    {
      "constant": true,
      "inputs": [],
      "name": "rate",
      "outputs": [
        {
          "name": "",
          "type": "uint256"
        }
      ],
      "payable": false,
      "stateMutability": "view",
      "type": "function"
    },
    {
      "constant": true,
      "inputs": [],
      "name": "cap",
      "outputs": [
        {
          "name": "",
          "type": "uint256"
        }
      ],
      "payable": false,
      "stateMutability": "view",
      "type": "function"
    },
    {
      "constant": true,
      "inputs": [],
      "name": "weiRaised",
      "outputs": [
        {
          "name": "",
          "type": "uint256"
        }
      ],
      "payable": false,
      "stateMutability": "view",
      "type": "function"
    },
    {
      "constant": true,
      "inputs": [],
      "name": "isOpen",
      "outputs": [
        {
          "name": "",
          "type": "bool"
        }
      ],
      "payable": false,
      "stateMutability": "view",
      "type": "function"
    },
    {
      "constant": true,
      "inputs": [],
      "name": "closingTime",
      "outputs": [
        {
          "name": "",
          "type": "uint256"
        }
      ],
      "payable": false,
      "stateMutability": "view",
      "type": "function"
    },
    {
      "constant": true,
      "inputs": [],
      "name": "capReached",
      "outputs": [
        {
          "name": "",
          "type": "bool"
        }
      ],
      "payable": false,
      "stateMutability": "view",
      "type": "function"
    },
    {
      "constant": true,
      "inputs": [],
      "name": "wallet",
      "outputs": [
        {
          "name": "",
          "type": "address"
        }
      ],
      "payable": false,
      "stateMutability": "view",
      "type": "function"
    },
    {
      "constant": true,
      "inputs": [],
      "name": "openingTime",
      "outputs": [
        {
          "name": "",
          "type": "uint256"
        }
      ],
      "payable": false,
      "stateMutability": "view",
      "type": "function"
    },
    {
      "constant": true,
      "inputs": [],
      "name": "remainingTokens",
      "outputs": [
        {
          "name": "",
          "type": "uint256"
        }
      ],
      "payable": false,
      "stateMutability": "view",
      "type": "function"
    },
    {
      "constant": true,
      "inputs": [],
      "name": "tokenWallet",
      "outputs": [
        {
          "name": "",
          "type": "address"
        }
      ],
      "payable": false,
      "stateMutability": "view",
      "type": "function"
    },
    {
      "constant": false,
      "inputs": [
        {
          "name": "beneficiary",
          "type": "address"
        }
      ],
      "name": "buyTokens",
      "outputs": [],
      "payable": true,
      "stateMutability": "payable",
      "type": "function"
    },
    {
      "constant": true,
      "inputs": [],
      "name": "token",
      "outputs": [
        {
          "name": "",
          "type": "address"
        }
      ],
      "payable": false,
      "stateMutability": "view",
      "type": "function"
    },
    {
      "inputs": [
        {
          "name": "openingTime",
          "type": "uint256"
        },
        {
          "name": "closingTime",
          "type": "uint256"
        },
        {
          "name": "rate",
          "type": "uint256"
        },
        {
          "name": "wallet",
          "type": "address"
        },
        {
          "name": "cap",
          "type": "uint256"
        },
        {
          "name": "token",
          "type": "address"
        }
      ],
      "payable": false,
      "stateMutability": "nonpayable",
      "type": "constructor"
    },
    {
      "payable": true,
      "stateMutability": "payable",
      "type": "fallback"
    },
    {
      "anonymous": false,
      "inputs": [
        {
          "indexed": true,
          "name": "purchaser",
          "type": "address"
        },
        {
          "indexed": true,
          "name": "beneficiary",
          "type": "address"
        },
        {
          "indexed": false,
          "name": "value",
          "type": "uint256"
        },
        {
          "indexed": false,
          "name": "amount",
          "type": "uint256"
        }
      ],
      "name": "TokensPurchased",
      "type": "event"
    }
  ],
  "bytecode": "0x608060405234801561001057600080fd5b5060405160c080610d9b833981018060405260c081101561003057600080fd5b8101908080519060200190929190805190602001909291908051906020019092919080519060200190929190805190602001909291908051906020019092919050505085858484878786600160008190555060008311151561009157600080fd5b600073ffffffffffffffffffffffffffffffffffffffff168273ffffffffffffffffffffffffffffffffffffffff16141515156100cd57600080fd5b600073ffffffffffffffffffffffffffffffffffffffff168173ffffffffffffffffffffffffffffffffffffffff161415151561010957600080fd5b8260038190555081600260006101000a81548173ffffffffffffffffffffffffffffffffffffffff021916908373ffffffffffffffffffffffffffffffffffffffff16021790555080600160006101000a81548173ffffffffffffffffffffffffffffffffffffffff021916908373ffffffffffffffffffffffffffffffffffffffff1602179055505050506000811115156101a457600080fd5b8060058190555050600073ffffffffffffffffffffffffffffffffffffffff168173ffffffffffffffffffffffffffffffffffffffff16141515156101e857600080fd5b80600660006101000a81548173ffffffffffffffffffffffffffffffffffffffff021916908373ffffffffffffffffffffffffffffffffffffffff1602179055505042821015151561023957600080fd5b818111151561024757600080fd5b81600781905550806008819055505050505050505050610b2f8061026c6000396000f3fe6080604052600436106100c5576000357c0100000000000000000000000000000000000000000000000000000000900463ffffffff1680631515bc2b146100d05780632c4e722e146100ff578063355274ea1461012a5780634042b66f1461015557806347535d7b146101805780634b6753bc146101af5780634f935945146101da578063521eb27314610209578063b7a8807c14610260578063bf5839031461028b578063bff99c6c146102b6578063ec8ac4d81461030d578063fc0c546a14610351575b6100ce336103a8565b005b3480156100dc57600080fd5b506100e561049e565b604051808215151515815260200191505060405180910390f35b34801561010b57600080fd5b506101146104aa565b6040518082815260200191505060405180910390f35b34801561013657600080fd5b5061013f6104b4565b6040518082815260200191505060405180910390f35b34801561016157600080fd5b5061016a6104be565b6040518082815260200191505060405180910390f35b34801561018c57600080fd5b506101956104c8565b604051808215151515815260200191505060405180910390f35b3480156101bb57600080fd5b506101c46104e3565b6040518082815260200191505060405180910390f35b3480156101e657600080fd5b506101ef6104ed565b604051808215151515815260200191505060405180910390f35b34801561021557600080fd5b5061021e610501565b604051808273ffffffffffffffffffffffffffffffffffffffff1673ffffffffffffffffffffffffffffffffffffffff16815260200191505060405180910390f35b34801561026c57600080fd5b5061027561052b565b6040518082815260200191505060405180910390f35b34801561029757600080fd5b506102a0610535565b6040518082815260200191505060405180910390f35b3480156102c257600080fd5b506102cb610772565b604051808273ffffffffffffffffffffffffffffffffffffffff1673ffffffffffffffffffffffffffffffffffffffff16815260200191505060405180910390f35b61034f6004803603602081101561032357600080fd5b81019080803573ffffffffffffffffffffffffffffffffffffffff1690602001909291905050506103a8565b005b34801561035d57600080fd5b5061036661079c565b604051808273ffffffffffffffffffffffffffffffffffffffff1673ffffffffffffffffffffffffffffffffffffffff16815260200191505060405180910390f35b6001600080828254019250508190555060008054905060003490506103cd83826107c6565b60006103d8826107e7565b90506103ef8260045461080590919063ffffffff16565b6004819055506103ff8482610826565b8373ffffffffffffffffffffffffffffffffffffffff163373ffffffffffffffffffffffffffffffffffffffff167f6faf93231a456e552dbc9961f58d9713ee4f2e69d15f1975b050ef0911053a7b8484604051808381526020018281526020019250505060405180910390a36104768483610834565b61047e610838565b61048884836108a3565b50506000548114151561049a57600080fd5b5050565b60006008544211905090565b6000600354905090565b6000600554905090565b6000600454905090565b600060075442101580156104de57506008544211155b905090565b6000600854905090565b60006005546104fa6104be565b1015905090565b6000600260009054906101000a900473ffffffffffffffffffffffffffffffffffffffff16905090565b6000600754905090565b600061076d61054261079c565b73ffffffffffffffffffffffffffffffffffffffff166370a08231600660009054906101000a900473ffffffffffffffffffffffffffffffffffffffff166040518263ffffffff167c0100000000000000000000000000000000000000000000000000000000028152600401808273ffffffffffffffffffffffffffffffffffffffff1673ffffffffffffffffffffffffffffffffffffffff16815260200191505060206040518083038186803b1580156105fc57600080fd5b505afa158015610610573d6000803e3d6000fd5b505050506040513d602081101561062657600080fd5b810190808051906020019092919050505061063f61079c565b73ffffffffffffffffffffffffffffffffffffffff1663dd62ed3e600660009054906101000a900473ffffffffffffffffffffffffffffffffffffffff16306040518363ffffffff167c0100000000000000000000000000000000000000000000000000000000028152600401808373ffffffffffffffffffffffffffffffffffffffff1673ffffffffffffffffffffffffffffffffffffffff1681526020018273ffffffffffffffffffffffffffffffffffffffff1673ffffffffffffffffffffffffffffffffffffffff1681526020019250505060206040518083038186803b15801561072d57600080fd5b505afa158015610741573d6000803e3d6000fd5b505050506040513d602081101561075757600080fd5b81019080805190602001909291905050506108a7565b905090565b6000600660009054906101000a900473ffffffffffffffffffffffffffffffffffffffff16905090565b6000600160009054906101000a900473ffffffffffffffffffffffffffffffffffffffff16905090565b6107ce6104c8565b15156107d957600080fd5b6107e382826108c0565b5050565b60006107fe600354836108f890919063ffffffff16565b9050919050565b600080828401905083811015151561081c57600080fd5b8091505092915050565b6108308282610936565b5050565b5050565b600260009054906101000a900473ffffffffffffffffffffffffffffffffffffffff1673ffffffffffffffffffffffffffffffffffffffff166108fc349081150290604051600060405180830381858888f193505050501580156108a0573d6000803e3d6000fd5b50565b5050565b60008183106108b657816108b8565b825b905092915050565b6108ca8282610990565b6005546108e7826108d96104be565b61080590919063ffffffff16565b111515156108f457600080fd5b5050565b60008083141561090b5760009050610930565b6000828402905082848281151561091e57fe5b0414151561092b57600080fd5b809150505b92915050565b61098c600660009054906101000a900473ffffffffffffffffffffffffffffffffffffffff16838361096661079c565b73ffffffffffffffffffffffffffffffffffffffff166109e0909392919063ffffffff16565b5050565b600073ffffffffffffffffffffffffffffffffffffffff168273ffffffffffffffffffffffffffffffffffffffff16141515156109cc57600080fd5b600081141515156109dc57600080fd5b5050565b8373ffffffffffffffffffffffffffffffffffffffff166323b872dd8484846040518463ffffffff167c0100000000000000000000000000000000000000000000000000000000028152600401808473ffffffffffffffffffffffffffffffffffffffff1673ffffffffffffffffffffffffffffffffffffffff1681526020018373ffffffffffffffffffffffffffffffffffffffff1673ffffffffffffffffffffffffffffffffffffffff1681526020018281526020019350505050602060405180830381600087803b158015610ab757600080fd5b505af1158015610acb573d6000803e3d6000fd5b505050506040513d6020811015610ae157600080fd5b81019080805190602001909291905050501515610afd57600080fd5b5050505056fea165627a7a72305820aa914d59067c4f976006e16b1bf251c86200326870e8f16d5230d4eddff3fca20029",
  "source": "pragma solidity ^0.5.0;\n\nimport \"openzeppelin-solidity/contracts/crowdsale/Crowdsale.sol\";\nimport \"openzeppelin-solidity/contracts/token/ERC20/ERC20.sol\";\nimport \"openzeppelin-solidity/contracts/crowdsale/validation/TimedCrowdsale.sol\";\nimport \"openzeppelin-solidity/contracts/crowdsale/validation/CappedCrowdsale.sol\";\nimport \"openzeppelin-solidity/contracts/crowdsale/emission/AllowanceCrowdsale.sol\";\nimport \"./NaraMalsamiToken.sol\";\n\n\ncontract NaraMalsamiTokenCrowdsale is Crowdsale, CappedCrowdsale, AllowanceCrowdsale, TimedCrowdsale{\n\n    constructor(\n        uint256 openingTime,\n        uint256 closingTime,\n        uint256 rate,\n        address payable wallet,\n        uint256 cap,\n        ERC20 token\n    )\n        Crowdsale(rate, wallet, token)\n        CappedCrowdsale(cap)\n        AllowanceCrowdsale(wallet)\n        TimedCrowdsale(openingTime, closingTime)\n    public {\n\n    }\n\n}",
  "sourcePath": "/Users/morris/Documents/NMT/contracts/NaraMalsamiTokenCrowdsale.sol",
  "compiler": {
    "name": "solc",
    "version": "0.5.0+commit.1d4f565a.Emscripten.clang"
  },
  "schemaVersion": "3.0.3",
  "updatedAt": "2019-05-17T04:27:47.010Z",
  "devdoc": {
    "methods": {
      "buyTokens(address)": {
        "details": "low level token purchase ***DO NOT OVERRIDE*** This function has a non-reentrancy guard, so it shouldn't be called by another `nonReentrant` function.",
        "params": {
          "beneficiary": "Recipient of the token purchase"
        }
      },
      "cap()": {
        "return": "the cap of the crowdsale."
      },
      "capReached()": {
        "details": "Checks whether the cap has been reached.",
        "return": "Whether the cap was reached"
      },
      "closingTime()": {
        "return": "the crowdsale closing time."
      },
      "hasClosed()": {
        "details": "Checks whether the period in which the crowdsale is open has already elapsed.",
        "return": "Whether crowdsale period has elapsed"
      },
      "isOpen()": {
        "return": "true if the crowdsale is open, false otherwise."
      },
      "openingTime()": {
        "return": "the crowdsale opening time."
      },
      "rate()": {
        "return": "the number of token units a buyer gets per wei."
      },
      "remainingTokens()": {
        "details": "Checks the amount of tokens left in the allowance.",
        "return": "Amount of tokens left in the allowance"
      },
      "token()": {
        "return": "the token being sold."
      },
      "tokenWallet()": {
        "return": "the address of the wallet that will hold the tokens."
      },
      "wallet()": {
        "return": "the address where funds are collected."
      },
      "weiRaised()": {
        "return": "the amount of wei raised."
      }
    }
  },
  "userdoc": {
    "methods": {}
  }
}