{
  "contractName": "WhitelistedRole",
  "abi": [
    {
      "constant": false,
      "inputs": [],
      "name": "renounceWhitelistAdmin",
      "outputs": [],
      "payable": false,
      "stateMutability": "nonpayable",
      "type": "function"
    },
    {
      "constant": false,
      "inputs": [
        {
          "name": "account",
          "type": "address"
        }
      ],
      "name": "addWhitelistAdmin",
      "outputs": [],
      "payable": false,
      "stateMutability": "nonpayable",
      "type": "function"
    },
    {
      "constant": true,
      "inputs": [
        {
          "name": "account",
          "type": "address"
        }
      ],
      "name": "isWhitelistAdmin",
      "outputs": [
        {
          "name": "",
          "type": "bool"
        }
      ],
      "payable": false,
      "stateMutability": "view",
      "type": "function"
    },
    {
      "anonymous": false,
      "inputs": [
        {
          "indexed": true,
          "name": "account",
          "type": "address"
        }
      ],
      "name": "WhitelistedAdded",
      "type": "event"
    },
    {
      "anonymous": false,
      "inputs": [
        {
          "indexed": true,
          "name": "account",
          "type": "address"
        }
      ],
      "name": "WhitelistedRemoved",
      "type": "event"
    },
    {
      "anonymous": false,
      "inputs": [
        {
          "indexed": true,
          "name": "account",
          "type": "address"
        }
      ],
      "name": "WhitelistAdminAdded",
      "type": "event"
    },
    {
      "anonymous": false,
      "inputs": [
        {
          "indexed": true,
          "name": "account",
          "type": "address"
        }
      ],
      "name": "WhitelistAdminRemoved",
      "type": "event"
    },
    {
      "constant": true,
      "inputs": [
        {
          "name": "account",
          "type": "address"
        }
      ],
      "name": "isWhitelisted",
      "outputs": [
        {
          "name": "",
          "type": "bool"
        }
      ],
      "payable": false,
      "stateMutability": "view",
      "type": "function"
    },
    {
      "constant": false,
      "inputs": [
        {
          "name": "account",
          "type": "address"
        }
      ],
      "name": "addWhitelisted",
      "outputs": [],
      "payable": false,
      "stateMutability": "nonpayable",
      "type": "function"
    },
    {
      "constant": false,
      "inputs": [
        {
          "name": "account",
          "type": "address"
        }
      ],
      "name": "removeWhitelisted",
      "outputs": [],
      "payable": false,
      "stateMutability": "nonpayable",
      "type": "function"
    },
    {
      "constant": false,
      "inputs": [],
      "name": "renounceWhitelisted",
      "outputs": [],
      "payable": false,
      "stateMutability": "nonpayable",
      "type": "function"
    }
  ],
  "bytecode": "0x608060405261001c33610021640100000000026401000000009004565b6101db565b61004281600061008864010000000002610527179091906401000000009004565b8073ffffffffffffffffffffffffffffffffffffffff167f22380c05984257a1cb900161c713dd71d39e74820f1aea43bd3f1bdd2096129960405160405180910390a250565b600073ffffffffffffffffffffffffffffffffffffffff168173ffffffffffffffffffffffffffffffffffffffff16141515156100c457600080fd5b6100dd8282610147640100000000026401000000009004565b1515156100e957600080fd5b60018260000160008373ffffffffffffffffffffffffffffffffffffffff1673ffffffffffffffffffffffffffffffffffffffff16815260200190815260200160002060006101000a81548160ff0219169083151502179055505050565b60008073ffffffffffffffffffffffffffffffffffffffff168273ffffffffffffffffffffffffffffffffffffffff161415151561018457600080fd5b8260000160008373ffffffffffffffffffffffffffffffffffffffff1673ffffffffffffffffffffffffffffffffffffffff16815260200190815260200160002060009054906101000a900460ff16905092915050565b6106b2806101ea6000396000f3fe608060405260043610610083576000357c0100000000000000000000000000000000000000000000000000000000900463ffffffff16806310154bad14610088578063291d9549146100d95780633af32abf1461012a5780634c5a628c146101935780637362d9c8146101aa578063bb5f747b146101fb578063d6cd947314610264575b600080fd5b34801561009457600080fd5b506100d7600480360360208110156100ab57600080fd5b81019080803573ffffffffffffffffffffffffffffffffffffffff16906020019092919050505061027b565b005b3480156100e557600080fd5b50610128600480360360208110156100fc57600080fd5b81019080803573ffffffffffffffffffffffffffffffffffffffff16906020019092919050505061029b565b005b34801561013657600080fd5b506101796004803603602081101561014d57600080fd5b81019080803573ffffffffffffffffffffffffffffffffffffffff1690602001909291905050506102bb565b604051808215151515815260200191505060405180910390f35b34801561019f57600080fd5b506101a86102d8565b005b3480156101b657600080fd5b506101f9600480360360208110156101cd57600080fd5b81019080803573ffffffffffffffffffffffffffffffffffffffff1690602001909291905050506102e3565b005b34801561020757600080fd5b5061024a6004803603602081101561021e57600080fd5b81019080803573ffffffffffffffffffffffffffffffffffffffff169060200190929190505050610303565b604051808215151515815260200191505060405180910390f35b34801561027057600080fd5b50610279610320565b005b61028433610303565b151561028f57600080fd5b6102988161032b565b50565b6102a433610303565b15156102af57600080fd5b6102b881610385565b50565b60006102d18260016103df90919063ffffffff16565b9050919050565b6102e133610473565b565b6102ec33610303565b15156102f757600080fd5b610300816104cd565b50565b60006103198260006103df90919063ffffffff16565b9050919050565b61032933610385565b565b61033f81600161052790919063ffffffff16565b8073ffffffffffffffffffffffffffffffffffffffff167fee1504a83b6d4a361f4c1dc78ab59bfa30d6a3b6612c403e86bb01ef2984295f60405160405180910390a250565b6103998160016105d790919063ffffffff16565b8073ffffffffffffffffffffffffffffffffffffffff167f270d9b30cf5b0793bbfd54c9d5b94aeb49462b8148399000265144a8722da6b660405160405180910390a250565b60008073ffffffffffffffffffffffffffffffffffffffff168273ffffffffffffffffffffffffffffffffffffffff161415151561041c57600080fd5b8260000160008373ffffffffffffffffffffffffffffffffffffffff1673ffffffffffffffffffffffffffffffffffffffff16815260200190815260200160002060009054906101000a900460ff16905092915050565b6104878160006105d790919063ffffffff16565b8073ffffffffffffffffffffffffffffffffffffffff167f0a8eb35e5ca14b3d6f28e4abf2f128dbab231a58b56e89beb5d636115001e16560405160405180910390a250565b6104e181600061052790919063ffffffff16565b8073ffffffffffffffffffffffffffffffffffffffff167f22380c05984257a1cb900161c713dd71d39e74820f1aea43bd3f1bdd2096129960405160405180910390a250565b600073ffffffffffffffffffffffffffffffffffffffff168173ffffffffffffffffffffffffffffffffffffffff161415151561056357600080fd5b61056d82826103df565b15151561057957600080fd5b60018260000160008373ffffffffffffffffffffffffffffffffffffffff1673ffffffffffffffffffffffffffffffffffffffff16815260200190815260200160002060006101000a81548160ff0219169083151502179055505050565b600073ffffffffffffffffffffffffffffffffffffffff168173ffffffffffffffffffffffffffffffffffffffff161415151561061357600080fd5b61061d82826103df565b151561062857600080fd5b60008260000160008373ffffffffffffffffffffffffffffffffffffffff1673ffffffffffffffffffffffffffffffffffffffff16815260200190815260200160002060006101000a81548160ff021916908315150217905550505056fea165627a7a72305820d49bc84b95ee5343ae203f402d2c30a526ac6e7af5d4c426c38334a2b42e6f750029",
  "source": "pragma solidity ^0.5.0;\r\n\r\nimport \"../Roles.sol\";\r\nimport \"./WhitelistAdminRole.sol\";\r\n\r\n/**\r\n * @title WhitelistedRole\r\n * @dev Whitelisted accounts have been approved by a WhitelistAdmin to perform certain actions (e.g. participate in a\r\n * crowdsale). This role is special in that the only accounts that can add it are WhitelistAdmins (who can also remove\r\n * it), and not Whitelisteds themselves.\r\n */\r\ncontract WhitelistedRole is WhitelistAdminRole {\r\n    using Roles for Roles.Role;\r\n\r\n    event WhitelistedAdded(address indexed account);\r\n    event WhitelistedRemoved(address indexed account);\r\n\r\n    Roles.Role private _whitelisteds;\r\n\r\n    modifier onlyWhitelisted() {\r\n        require(isWhitelisted(msg.sender));\r\n        _;\r\n    }\r\n\r\n    function isWhitelisted(address account) public view returns (bool) {\r\n        return _whitelisteds.has(account);\r\n    }\r\n\r\n    function addWhitelisted(address account) public onlyWhitelistAdmin {\r\n        _addWhitelisted(account);\r\n    }\r\n\r\n    function removeWhitelisted(address account) public onlyWhitelistAdmin {\r\n        _removeWhitelisted(account);\r\n    }\r\n\r\n    function renounceWhitelisted() public {\r\n        _removeWhitelisted(msg.sender);\r\n    }\r\n\r\n    function _addWhitelisted(address account) internal {\r\n        _whitelisteds.add(account);\r\n        emit WhitelistedAdded(account);\r\n    }\r\n\r\n    function _removeWhitelisted(address account) internal {\r\n        _whitelisteds.remove(account);\r\n        emit WhitelistedRemoved(account);\r\n    }\r\n}\r\n",
  "sourcePath": "openzeppelin-solidity/contracts/access/roles/WhitelistedRole.sol",
  "compiler": {
    "name": "solc",
    "version": "0.5.0+commit.1d4f565a.Emscripten.clang"
  },
  "schemaVersion": "3.0.3",
  "updatedAt": "2019-04-04T06:38:12.219Z",
  "devdoc": {
    "details": "Whitelisted accounts have been approved by a WhitelistAdmin to perform certain actions (e.g. participate in a\r crowdsale). This role is special in that the only accounts that can add it are WhitelistAdmins (who can also remove\r it), and not Whitelisteds themselves.\r",
    "methods": {},
    "title": "WhitelistedRole\r"
  },
  "userdoc": {
    "methods": {}
  }
}